:100000000C94B8000C94D5000C94D5000C94D50039
:100010000C94020C0C94D5000C94D5000C94D500D3
:100020000C94D5000C94D5000C94D5000C94D500FC
:100030000C94D5000C94D5000C94800D0C94D50034
:100040000C94D5000C94D5000C94E50D0C94D500BF
:100050000C94D90D0C94E4000C94D5000C94D500AC
:100060000C94D5000C94D5005A04E40464055106A0
:100070005D07C008230A00407A10F35A00A0724EB0
:1000800018090010A5D4E80000E87648170000E43D
:100090000B54020000CA9A3B000000E1F505000085
:1000A00080969800000040420F000000A0860100EA
:1000B0000000102700000000E803000000006400BA
:1000C000000000000A000000000001000000000025
:1000D0002C76D888DC674F0823DFC1DFAE59E1B149
:1000E000B796E5E3E453C63AE651997696E8E6C258
:1000F0008426EB898C9B62ED407C6FFCEFBC9C9F5F
:1001000040F2BAA56FA5F490055A2AF75C936B6C80
:10011000F9676DC11BFCE0E40D47FEF520E6B50074
:10012000D0ED902E0300943577050080841E0800E2
:1001300000204E0A000000C80C333333330F986E92
:1001400012831141EF8D2114893BE65516CFFEE64F
:10015000DB18D1844B381BF77C1D901DA4BBE42415
:10016000203284725E228100C9F124ECA1E53D2792
:1001700011241FBECFEFD8E0DEBFCDBF11E0A0E05D
:10018000B1E0E4EFFBE202C005900D92AE3BB10797
:10019000D9F722E0AEEBB1E001C01D92A135B20764
:1001A000E1F70E94960A0C94F8150C940000109246
:1001B000640080EC80937C008EEE80937A00109235
:1001C0007B001092BF0108951F920F920FB60F92FD
:1001D00011248F9381E08093BE018F910F900FBE09
:1001E0000F901F9018958F929F92AF92BF92CF92CF
:1001F000DF92EF92FF928091BE01882309F485C0BF
:100200001092BE018091BF01811109C080917800D8
:10021000909179009093D1018093D0010AC08130F0
:1002200041F480917800909179009093CF01809370
:10023000CE016091D0017091D10180E090E00E94E8
:10024000BB0F2AE939E949E650E40E941A0F0E94DF
:100250008C0F6B017C017093CD016093CC01609198
:10026000CE017091CF0180E090E00E94BB0F24E1AD
:100270003EEA43E252E40E941A0F4B015C01609394
:10028000C8017093C9018093CA019093CB01B60154
:1002900080E090E00E94BB0FA50194010E944910EC
:1002A00020E030E04AE754E40E941A0F6093C40152
:1002B0007093C5018093C6019093C701EAE7F0E00F
:1002C00080818F7780838091BF018F5F8093BF0192
:1002D000823018F01092BF0105C0882319F08130D8
:1002E00039F00EC0ECE7F0E080818C7F808308C09D
:1002F000ECE7F0E080818D7F808380818160808366
:10030000EAE7F0E08081806C8083FF90EF90DF90DF
:10031000CF90BF90AF909F908F900895F999FECFA6
:1003200092BD81BDF89A80B50895F999FECF92BD2E
:1003300081BD60BDF894FA9AF99A78940895109264
:10034000B90088E48093B8000895CF93DF93ECEB75
:10035000F0E024EAA9EBB0E0CBEBD0E034E844E9EC
:10036000208390819923ECF79C91987F983011F02D
:100370009031B1F78883308390819923ECF79C9179
:10038000987F903211F0983529F44083908194FD44
:10039000FDCFE6CFDF91CF91089584E98093BC0033
:1003A000ECEBF0E0808184FDFDCF08958093BB00ED
:1003B00084E88093BC00ECEBF0E080818823ECF7CC
:1003C0009091B900987F81E0983209F480E0089517
:1003D00084E88093BC00ECEBF0E080818823ECF7AC
:1003E0008091BB000895CF93C82F862F0E94A5014E
:1003F0008C2F0E94D6010E94CD01CF9108950F93BA
:100400001F93CF93DF93FC01062F172FEA012111D1
:1004100028C0808199EE980F963018F08F5F808306
:1004200001C0108280811F928F9388E291E09F9398
:100430008F931F930F930E94DC10888161E081509D
:100440000E94E203802F912F0E94EB0361E08881DC
:100450000E94E2030F900F900F900F900F900F905B
:1004600028C0213031F5808181508A3F10F480838B
:1004700002C087E1808380811F928F9388E291E0A0
:100480009F938F931F930F930E94DC10888161E0EC
:1004900081500E94E203802F912F0E94EB0361E0C4
:1004A00088810E94E2030F900F900F900F900F90A1
:1004B0000F90DF91CF911F910F9108950F931F938C
:1004C000CF93DF93FC01062F172FEA01211128C0DB
:1004D000808195EC980F953018F08F5F808301C074
:1004E000108280811F928F9388E291E09F938F9377
:1004F0001F930F930E94DC10888161E081500E945D
:10050000E203802F912F0E94EB0361E088810E941B
:10051000E2030F900F900F900F900F900F9028C054
:10052000213031F5808181508A3F10F4808302C0F0
:100530008BE3808380811F928F9388E291E09F9369
:100540008F931F930F930E94DC10888161E081508C
:100550000E94E203802F912F0E94EB0361E08881CB
:100560000E94E2030F900F900F900F900F900F904A
:10057000DF91CF911F910F9108950F931F93CF9308
:10058000DF93FC01062F172FEA01211128C080817B
:1005900095EC980F953018F08F5F808301C0108222
:1005A00080811F928F9388E291E09F938F931F9396
:1005B0000F930E94DC10888161E081500E94E20369
:1005C000802F912F0E94EB0361E088810E94E2035B
:1005D0000F900F900F900F900F900F9028C0213028
:1005E00031F5808181508A3F10F4808302C08BE313
:1005F000808380811F928F9388E291E09F938F93F5
:100600001F930F930E94DC10888161E081500E944B
:10061000E203802F912F0E94EB0361E088810E940A
:10062000E2030F900F900F900F900F900F90DF91BB
:10063000CF911F910F910895CF93C82F8091EA0118
:1006400084608093EA016EE40E94F30187EC90E0FD
:100650000197F1F700C00000C295C07F8091EA01C8
:100660006EE48C2B0E94F3018091EA018B7F8093D2
:10067000EA016EE40E94F30187EC90E00197F1F744
:1006800000C00000CF910895CF93DF93C82FD82FDB
:10069000D295DF70611109C08091EA018E7F80934D
:1006A000EA016EE40E94F30108C08091EA018160D2
:1006B0008093EA016EE40E94F3018D2F0E941C03D7
:1006C0008C2F0E941C03DF91CF910895CF93C82FE8
:1006D0008091EA0181608093EA016EE40E94F30157
:1006E0008C2F82958F700E941C038C2F0E941C03FC
:1006F000CF9108951092EA010E949F018FE59AEE32
:100700000197F1F700C0000083E00E941C038FE70F
:100710009EE30197F1F700C0000083E00E941C03F4
:100720008FE891E00197F1F700C0000083E00E949C
:100730001C038FE99FE00197F1F700C0000082E001
:100740000E941C038FE99FE00197F1F700C00000B1
:1007500060E088E20E9444038FE99FE00197F1F78F
:1007600000C0000060E08CE00E9444038FE99FE03D
:100770000197F1F700C0000060E086E00E944403AA
:100780008FE99FE00197F1F700C000008091EA0136
:1007900088608093EA016EE40E94F3018091EA018F
:1007A0008D7F8093EA016EE40E94F301089560E07A
:1007B00081E00E9444038FE89AE10197F1F700C0BD
:1007C0000000089590E4699F800D112460E0806826
:1007D0000E94440308950F931F93CF93FC018081DF
:1007E000882359F08F01C0E00E946603CF5FF801B3
:1007F000EC0FF11D80818111F7CFCF911F910F91E7
:100800000895882329F060E08FE00E944403089552
:1008100060E08CE00E9444030895FA01DC01129626
:100820002C91129754E611968C9190E0529F800D76
:10083000911D1124DB0112962C91129711966C9147
:1008400070E0529F600D711D11244281218130E0C2
:10085000549F200D311D11248617970768F0281723
:10086000390720F02833B9E03B0778F081E02617FC
:10087000370770F080E008952817390740F081E0CD
:100880002617370728F080E0089581E0089580E07A
:1008900008950F931F93CF93DF93E091D6018E2F8E
:1008A00090E08730910508F03CC6FC01EC5CFF4FFE
:1008B0000C94B61080910001882331F01092000151
:1008C0001092DF011092DE018091DE019091DF0134
:1008D00089359B4128F081E0809300018093D60107
:1008E0008091D901882309F460C01092D90100E0F9
:1008F00026E432E04EE352E06FE372E080E492E0FF
:100900000E94060DEEE3F2E080811F928F938181B9
:100910001F928F9382811F928F9384E091E09F9327
:100920008F93C6E0D2E0DF93CF930E94DC1060E0AB
:1009300080E00E94E20383E191E00E94EB03CE019C
:100940000E94EB0383E191E00E94EB0361E080E011
:100950000E94E20385E191E00E94EB03E5E3F2E00F
:1009600081811F928F9382811F928F93E3E2F2E045
:1009700081811F928F9382811F928F9388E191E0F2
:100980009F938F93DF93CF930E94DC10CE010E9440
:10099000EB0385E191E00E94EB038DB79EB746968D
:1009A0000FB6F8949EBF0FBE8DBF65E08091010128
:1009B0000E944B0C882309F4B4C581E080930001A8
:1009C00082E08093D601ADC580910001882331F08B
:1009D000109200011092DF011092DE018091DE0181
:1009E0009091DF01813A9F4028F081E080930001DF
:1009F0001092D6018091DD01882309F456C010922F
:100A0000DD010E94D7038091CD018F938091CC01AD
:100A10008F938DE291E09F938F9386E092E09F9376
:100A20008F930E94DC1060E081E00E94E20386E088
:100A300092E00E94EB036091C8017091C90180911E
:100A4000CA019091CB0106E012E021E030E044E0E1
:100A500050E00E94BC1061E081E00E94E203C80106
:100A60000E94EB038EE491E00E94EB036091C401CD
:100A70007091C5018091C6019091C70121E030E0DD
:100A800044E050E00E94BC1060E089E00E94E20374
:100A9000C8010E94EB0382E391E00E94EB030F90F8
:100AA0000F900F900F900F900F9065E080910101D3
:100AB0000E944B0C882309F434C581E08093000127
:100AC00082E08093D6012DC5C091D5010C2E000C7B
:100AD000DD0B60E080E00E94E2038DE391E00E9484
:100AE000EB0361E080E00E94E20386E191E00E9476
:100AF000EB0360E081E00E94E2038091D50120E1F8
:100B00008202C001112483589E4F0E94EB03809102
:100B1000D501811115C08091D301813049F460E085
:100B20008CE00E94E20385E391E00E94EB0308C0A1
:100B300060E08CE00E94E2038AE391E00E94EB0314
:100B400061E081E00E94E203C330D10509F4E4C40E
:100B5000CE0182959295907F9827807F9827835722
:100B60009E4F0E94EB032196A9F48091D30181301E
:100B700049F461E08CE00E94E20385E391E00E9489
:100B8000EB0308C061E08CE00E94E2038AE391E09D
:100B90000E94EB0363E0809101010E944B0C8823CB
:100BA00059F08091D5018F5F84301CF48093D5017A
:100BB000B8C41092D501B5C462E0809101010E94D1
:100BC0004B0C882359F08091D50181501AF0809305
:100BD000D501A7C483E08093D501A3C48091D5013A
:100BE000823059F465E0809101010E944B0C88230A
:100BF00021F083E08093D60194C48091D5018130A7
:100C000059F465E0809101010E944B0C882321F08A
:100C100084E08093D60185C48091D501811125C0DF
:100C200065E0809101010E944B0C882321F085E052
:100C30008093D60176C48091D501811116C060E001
:100C4000809101010E944B0C811107C061E08091ED
:100C500001010E944B0C882341F081E09091D30167
:100C6000911180E08093D3015CC48091D5018330E1
:100C700059F465E0809101010E944B0C882321F01A
:100C800086E08093D6014DC464E0809101010E940A
:100C90004B0C882309F445C41092D5011092D6015B
:100CA00040C480910001882309F44BC010920001D8
:100CB00089E0EEE3F2E0ADEFB1E001900D928A95AC
:100CC000E1F7EDEFF1E080811F928F9381811F9218
:100CD0008F9382811F928F9384E091E09F938F93F3
:100CE00086E092E09F938F930E94DC1085E08093D2
:100CF000D40160E080E00E94E2038FE391E00E9473
:100D0000EB0361E080E00E94E20383E191E00E9456
:100D1000EB0386E092E00E94EB0383E191E00E9406
:100D2000EB0361E08091D4010E94E20381E00E9424
:100D300001048DB79EB70A960FB6F8949EBF0FBEFA
:100D40008DBF61E0809101010E944B0C882389F0E6
:100D50008091D4018D5F8C301CF48093D40103C04A
:100D60008BE08093D40161E08091D4010E94E20382
:100D7000D8C360E0809101010E944B0C882389F068
:100D80008091D401835085301CF08093D40103C03E
:100D900085E08093D40161E08091D4010E94E20358
:100DA000C0C362E0809101010E944B0C882339F19D
:100DB0008091D401853051F420E044ED51E066E0AB
:100DC00072E08FEF91E00E94FF01ABC3883051F4D5
:100DD00020E044ED51E066E072E08EEF91E00E9489
:100DE0005E029FC38B3009F09CC320E044ED51E0CC
:100DF00066E072E08DEF91E00E94BD0292C363E075
:100E0000809101010E944B0C882339F18091D4011B
:100E1000853051F421E044ED51E066E072E08FEF5F
:100E200091E00E94FF017DC3883051F421E044ED40
:100E300051E066E072E08EEF91E00E945E0271C3C5
:100E40008B3009F06EC321E044ED51E066E072E0C2
:100E50008DEF91E00E94BD0264C365E080910101C5
:100E60000E944B0C8823A9F0EDEFF1E000E020E0B8
:100E70004081618182810E94440D81E08093000164
:100E80001092D40180E00E94010482E08093D60198
:100E900048C364E0809101010E944B0C882309F44F
:100EA00040C381E0809300011092D40180E00E9451
:100EB000010482E08093D60134C38091000188232D
:100EC00009F459C01092000189E0E3E2F2E0ACE2DB
:100ED000B2E001900D928A95E1F789E0E5E3F2E056
:100EE000AAE1B2E001900D928A95E1F783E0809348
:100EF000D40160E080E00E94E20380E591E00E947E
:100F0000EB03EAE1F2E081811F928F9382811F92CD
:100F10008F93ECE2F2E081811F928F9382811F9286
:100F20008F9388E191E09F938F9386E092E09F9367
:100F30008F930E94DC1061E080E00E94E20385E173
:100F400091E00E94EB0386E092E00E94EB0385E1D2
:100F500091E00E94EB0361E08091D4010E94E203E2
:100F600081E00E9401048DB79EB70C960FB6F894ED
:100F70009EBF0FBE8DBF61E0809101010E944B0CAE
:100F80008823C9F08091D4019CEF980F933020F40E
:100F90008AE08093D40109C08D5F8E301CF4809369
:100FA000D40103C08DE08093D40161E08091D4012D
:100FB0000E94E203B6C260E0809101010E944B0CE6
:100FC0008823C9F08091D40196EF980F933020F4D4
:100FD00086E08093D40109C0835083301CF0809355
:100FE000D40103C083E08093D40161E08091D401F7
:100FF0000E94E20396C262E0809101010E944B0CC4
:10100000882399F18091D401833051F420E044ED9C
:1010100051E066E072E08EE292E00E94FF0181C240
:10102000863051F420E044ED51E066E072E08DE25C
:1010300092E00E945E0275C28A3051F420E044EDD5
:1010400051E066E072E08CE192E00E94FF0169C22B
:101050008D3009F066C220E044ED51E066E072E0B8
:101060008BE192E00E945E025CC263E0809101012C
:101070000E944B0C882399F18091D401833051F464
:1010800021E044ED51E066E072E08EE292E00E94E1
:10109000FF0147C2863051F421E044ED51E066E0A3
:1010A00072E08DE292E00E945E023BC28A3051F40F
:1010B00021E044ED51E066E072E08CE192E00E94B4
:1010C000FF012FC28D3009F02CC221E044ED51E028
:1010D00066E072E08BE192E00E945E0222C265E06F
:1010E000809101010E944B0C8823B1F189E0ECE270
:1010F000F2E0A3E2B2E001900D928A95E1F789E077
:10110000EAE1F2E0A5E3B2E001900D928A95E1F701
:10111000C3E2D2E06A8180E090E00E94950169819B
:1011200081E090E00E949501C5E3D2E06A8182E00F
:1011300090E00E949501698183E090E00E94950112
:1011400081E0809300011092D40180E00E940104AC
:1011500082E08093D601E5C164E0809101010E94A4
:101160004B0C882309F4DDC181E0809300011092CB
:10117000D40180E00E94010482E08093D601D1C1B5
:1011800080910001882309F459C01092000189E080
:10119000E4EFF1E0ACE2B2E001900D928A95E1F764
:1011A00089E0EBEEF1E0AAE1B2E001900D928A95C0
:1011B000E1F783E08093D40160E080E00E94E203E5
:1011C00081E691E00E94EB03EAE1F2E081811F9267
:1011D0008F9382811F928F93ECE2F2E081811F92C4
:1011E0008F9382811F928F9388E191E09F938F93D9
:1011F00086E092E09F938F930E94DC1061E080E094
:101200000E94E20385E191E00E94EB0386E092E018
:101210000E94EB0385E191E00E94EB0361E0809185
:10122000D4010E94E20381E00E9401048DB79EB7C1
:101230000C960FB6F8949EBF0FBE8DBF61E08091F3
:1012400001010E944B0C8823C9F08091D4019CEFCE
:10125000980F933020F48AE08093D40109C08D5F09
:101260008E301CF48093D40103C08DE08093D401B0
:1012700061E08091D4010E94E20353C160E080915B
:1012800001010E944B0C8823C9F08091D40196EF94
:10129000980F933020F486E08093D40109C08350E6
:1012A00083301CF08093D40103C083E08093D40189
:1012B00061E08091D4010E94E20333C162E0809139
:1012C00001010E944B0C882399F18091D401833055
:1012D00051F420E044ED51E066E072E08EE292E0ED
:1012E0000E94FF011EC1863051F420E044ED51E020
:1012F00066E072E08DE292E00E945E0212C18A30E6
:1013000051F420E044ED51E066E072E08CE192E0BF
:101310000E94FF0106C18D3009F003C120E044EDB9
:1013200051E066E072E08BE192E00E945E02F9C05B
:1013300063E0809101010E944B0C882399F1809118
:10134000D401833051F421E044ED51E066E072E0D5
:101350008EE292E00E94FF01E4C0863051F421E069
:1013600044ED51E066E072E08DE292E00E945E02A0
:10137000D8C08A3051F421E044ED51E066E072E0DB
:101380008CE192E00E94FF01CCC08D3009F0C9C011
:1013900021E044ED51E066E072E08BE192E00E94D2
:1013A0005E02BFC065E0809101010E944B0C882362
:1013B000B1F189E0ECE2F2E0A4EFB1E001900D922E
:1013C0008A95E1F789E0EAE1F2E0ABEEB1E0019065
:1013D0000D928A95E1F7C4EFD1E06A8184E090E054
:1013E0000E949501698185E090E00E949501CBEE15
:1013F000D1E06A8186E090E00E949501698187E0F2
:1014000090E00E94950181E0809300011092D40148
:1014100080E00E94010482E08093D60182C064E0F3
:10142000809101010E944B0C882309F47AC081E06D
:10143000809300011092D40180E00E94010482E0B8
:101440008093D6016EC08091DD01882309F456C0D7
:101450001092DD010E94D7038091CD018F9380917E
:10146000CC018F938DE291E09F938F9386E092E081
:101470009F938F930E94DC1060E081E00E94E20362
:1014800086E092E00E94EB036091C8017091C9016F
:101490008091CA019091CB0106E012E021E030E09A
:1014A00044E050E00E94BC1061E081E00E94E20351
:1014B000C8010E94EB038EE491E00E94EB0360916F
:1014C000C4017091C5018091C6019091C70121E0CE
:1014D00030E044E050E00E94BC1060E089E00E94EF
:1014E000E203C8010E94EB0382E391E00E94EB0358
:1014F0000F900F900F900F900F900F9064E08091DD
:1015000001010E944B0C882361F081E0809300016F
:1015100082E08093D60105C08DE791E00E94EB0345
:1015200024CBDF91CF911F910F9108950E94770DE9
:101530000E949F010E947A030E94D70060E271EA34
:1015400087E090E00E94100E0E94F90C0E94F60BBA
:101550000E94150C259A249A789480E090E00E94CD
:101560008E01C3E2D2E08A8381E090E00E948E0186
:10157000898382E090E00E948E01C5E3D2E08A83F5
:1015800083E090E00E948E01898384E090E00E94D5
:101590008E01C4EFD1E08A8385E090E00E948E0145
:1015A000898386E090E00E948E01CBEED1E08A83B1
:1015B00087E090E00E948E01898389E0E3E2F2E017
:1015C000ACE2B2E001900D928A95E1F789E0E5E3A3
:1015D000F2E0AAE1B2E001900D928A95E1F70F2EB8
:1015E000F2E7EF2EF1E0FF2EF02DC6E0D2E00F2E55
:1015F000FAE7CF2EF1E0DF2EF02DBB24B3940E944A
:10160000220C809301010E94F3008091D1018F93FD
:101610008091D0018F93FF92EF92DF93CF930E943E
:10162000DC10CE010E949A0E8091CF018F938091A1
:10163000CE018F93FF92EF92DF93CF930E94DC1045
:10164000CE010E949A0E8091CD018F938091CC01A2
:101650008F93FF92EF92DF93CF930E94DC10CE0125
:101660000E949A0E6091C8017091C9018091CA01CF
:101670009091CB018E0121E030E044E050E00E94E7
:10168000BC10CE010E949A0E85E191E00E949A0E54
:101690006091C4017091C5018091C6019091C7010C
:1016A00021E030E044E050E00E94BC10CE010E94F6
:1016B0009A0E85E191E00E949A0E6091C0017091AE
:1016C000C1018091C2019091C30121E030E045E069
:1016D00050E00E94BC10CE010E949A0E88E791E073
:1016E0000E949A0E80E10E94D80C1F928F93DF9285
:1016F000CF92DF93CF930E94DC10CE010E949A0E0E
:1017000088E791E00E949A0E8091D8012DB73EB7EC
:10171000285E3F4F0FB6F8943EBF0FBE2DBF882303
:1017200009F461C01092D80100E026E432E04EE3F3
:1017300052E06FE372E080E492E00E94060D20E048
:1017400030E041E655E46091C4017091C50180919B
:10175000C6019091C7010E941A0F9B01AC016091D4
:10176000C0017091C1018091C2019091C3010E949A
:10177000AE0E6093C0017093C1018093C20190933B
:10178000C3018091D3018130D1F44EE352E06BEE7E
:1017900071E084EF91E00E940D04882329F0B0925B
:1017A000D701B092D2010DC08091D201882349F0B7
:1017B0001092D7011092D3011092D20102C0109260
:1017C000D7014EE352E065E372E083E292E00E94CB
:1017D0000D049091D701892B8093D701882311F0B4
:1017E0002D9A01C02D980E94490409CFE8E6F0E047
:1017F000808182608083ECE6F0E080818860808375
:101800003B9808951F920F920FB60F9211248F9359
:10181000339B05C081E08093D9018093D8018F91DB
:101820000F900FBE0F901F9018958AB18F708AB9D4
:1018300084B18C7F84B98BB1806F8BB985B18360A3
:1018400085B908958091E501882369F01092E5013A
:1018500093B129B130E1939FC0011124922F929549
:101860009F70892B01C08FEF9091E601992381F041
:101870001092E60193B149B150E1959F9001112476
:10188000942F92959F70292B821302C0809303019D
:10189000809103010895282F30E020953095E62FA0
:1018A000A901062E02C0559547950A94E2F740FF1C
:1018B00017C09091DB01911113C091E09093DB016F
:1018C0006093DA01809541E050E0062E02C0440F9B
:1018D000551F0A94E2F7842309F045C081E008957A
:1018E0009091DA01E92F809541E050E0092E02C085
:1018F000440F551F0A94E2F7842319F18EEF890FE4
:10190000823008F5691321C080E001C081E0909128
:101910000201913031F4109202011092E101109213
:10192000E0012091E0013091E1012039314000F1E6
:101930009091E7019923E1F01092E70191E0892766
:10194000089580E003C080E001C080E002C03595CA
:101950002795EA95E2F720FD0BC01092DB0191E09C
:101960009093020108956250623080F281E0EECFE0
:101970000895982F92959F70990F292F220F220F6B
:10198000920F8F70890F08959DEC899F912D1124DE
:1019900096959695969520E1929FA0011124990F16
:1019A000292F220F220F920F891B8F70842B0895ED
:1019B000CF93C82F80ED0E94A5018C2F0E94D601E5
:1019C00081ED0E94A5010E94E801CF910895CF9377
:1019D000DF93D82FC62F80ED0E94A5018D2F0E9486
:1019E000D6018C2F0E94D6010E94CD01DF91CF91AC
:1019F000089560E08EE00E94E70C60E08FE00E94B6
:101A0000E70C68EE80E10E94E70C0895AF92BF9268
:101A1000CF92DF92EF92FF920F93CF93DF93EC017F
:101A20007B016A01590180E00E94D80C0E94B90C28
:101A3000F601808381E00E94D80C0E94B90CF70166
:101A40008083013081F482E00E94D80C85FB8827D6
:101A500080F9F501808382E00E94D80C8F710E948A
:101A6000B90C888307C082E00E94D80C8F730E9453
:101A7000B90C8883DF91CF910F91FF90EF90DF90A9
:101A8000CF90BF90AF9008950F931F93CF93DF93A4
:101A9000D82FC62F842F122F0E94C40C682F80E0ED
:101AA0000E94E70C8C2F0E94C40C682F81E00E94DA
:101AB000E70C013079F4113011F0C0E401C0C0E648
:101AC0008D2F0E94C40C8F71682F6C2B82E00E94B6
:101AD000E70C08C08D2F0E94C40C682F6F7382E042
:101AE0000E94E70CDF91CF911F910F91089582E042
:101AF00084BD93E095BD99EF97BD80936E000895E6
:101B00001F920F920FB60F9211248F939F9381E033
:101B10008093E8018091E4018F5F8093E4018091DC
:101B2000E2018F5F8093E2018091E3018F5F8093F8
:101B3000E3018091E0019091E10101969093E10130
:101B40008093E0018091DE019091DF0101969093F6
:101B5000DF018093DE018091DC018F5F8093DC01E7
:101B60008091E401843629F41092E40181E08093AD
:101B7000E7018091E201833029F41092E20181E0D3
:101B80008093E5018091E301863029F41092E3010E
:101B900081E08093E6018091DC01843619F481E0D4
:101BA0008093DD019F918F910F900FBE0F901F903A
:101BB00018951F920F920FB60F921124109248029F
:101BC0000F900FBE0F901F9018951F920F920FB697
:101BD0000F9211248F93EF93FF938091C60080930F
:101BE00047028091E901883098F4E091E901F0E042
:101BF00080914702E75BFD4F80838091E9018F5F11
:101C00008093E901E091E901F0E0E75BFD4F10828C
:101C1000FF91EF918F910F900FBE0F901F9018952D
:101C200022E02093C00028ED2093C10026E02093FD
:101C3000C20061152CE2720721E08207910509F4C8
:101C400051C0C8F4603428E3720781059105A9F1F9
:101C500030F4603875428105910541F164C0611529
:101C60002BE472078105910579F1611576498105AB
:101C7000910589F158C0603221EA720727E0820796
:101C80009105F1F130F46039704D8340910589F18F
:101C90004AC0603422E472072FE082079105B9F14F
:101CA000603874488E419105C9F13DC08FEC90E0D9
:101CB0009093C5008093C40008958AE890E09093C3
:101CC000C5008093C400089587E690E09093C50016
:101CD0008093C400089583E390E09093C5008093BF
:101CE000C400089589E190E09093C5008093C400FA
:101CF000089587E090E09093C5008093C400089514
:101D000083E090E09093C5008093C400089581E043
:101D100090E09093C5008093C40008951092C50090
:101D20001092C40008958FEC90E09093C5008093CA
:101D3000C4000895FC019081992371F03196A6ECBE
:101D4000B0E081E09C938093480290914802911109
:101D5000FCCF91919111F6CF08955058BB27AA2737
:101D60000E94C50E0C940F100E94011038F00E94C2
:101D7000081020F039F49F3F19F426F40C94FE0F5C
:101D80000EF4E095E7FB0C94F80FE92F0E94201069
:101D900058F3BA17620773078407950720F079F4A0
:101DA000A6F50C9442100EF4E0950B2EBA2FA02D40
:101DB0000B01B90190010C01CA01A0011124FF27F8
:101DC000591B99F0593F50F4503E68F11A16F040F3
:101DD000A22F232F342F4427585FF3CF46953795F2
:101DE0002795A795F0405395C9F77EF41F16BA0BB7
:101DF000620B730B840BBAF09150A1F0FF0FBB1F65
:101E0000661F771F881FC2F70EC0BA0F621F731FAD
:101E1000841F48F4879577956795B795F7959E3F0A
:101E200008F0B0CF9395880F08F09927EE0F97959B
:101E3000879508950E942E0F0C940F100E94081091
:101E400058F00E94011040F029F45F3F29F00C94F3
:101E5000F80F51110C9443100C94FE0F0E942010A7
:101E600068F39923B1F3552391F3951B550BBB27C9
:101E7000AA2762177307840738F09F5F5F4F220F0E
:101E8000331F441FAA1FA9F335D00E2E3AF0E0E805
:101E900032D091505040E695001CCAF72BD0FE2F4F
:101EA00029D0660F771F881FBB1F261737074807E3
:101EB000AB07B0E809F0BB0B802DBF01FF2793589B
:101EC0005F4F3AF09E3F510578F00C94F80F0C9458
:101ED00043105F3FE4F3983ED4F38695779567957A
:101EE000B795F7959F5FC9F7880F911D96958795D0
:101EF00097F90895E1E0660F771F881FBB1F6217EF
:101F000073078407BA0720F0621B730B840BBA0BAC
:101F1000EE1F88F7E09508950E94281088F09F57DB
:101F200098F0B92F9927B751B0F0E1F0660F771FFD
:101F3000881F991F1AF0BA95C9F714C0B13091F0F3
:101F40000E944210B1E008950C944210672F782F40
:101F50008827B85F39F0B93FCCF3869577956795B8
:101F6000B395D9F73EF490958095709561957F4F24
:101F70008F4F9F4F0895E89409C097FB3EF49095CA
:101F80008095709561957F4F8F4F9F4F9923A9F052
:101F9000F92F96E9BB279395F695879577956795E1
:101FA000B795F111F8CFFAF4BB0F11F460FF1BC025
:101FB0006F5F7F4F8F4F9F4F16C0882311F096E9B8
:101FC00011C0772321F09EE8872F762F05C0662366
:101FD00071F096E8862F70E060E02AF09A95660F1F
:101FE000771F881FDAF7880F9695879597F90895D8
:101FF00097F99F6780E870E060E008959FEF80ECBC
:10200000089500240A94161617061806090608955E
:1020100000240A9412161306140605060895092EC4
:102020000394000C11F4882352F0BB0F40F4BF2B33
:1020300011F460FF04C06F5F7F4F8F4F9F4F089573
:1020400057FD9058440F551F59F05F3F71F0479569
:10205000880F97FB991F61F09F3F79F0879508954E
:10206000121613061406551FF2CF4695F1DF08C06D
:10207000161617061806991FF1CF8695710561058A
:1020800008940895E894BB2766277727CB0197F932
:1020900008950E945C100C940F100E94011038F0FB
:1020A0000E94081020F0952311F00C94F80F0C9466
:1020B000FE0F11240C9443100E94201070F3959F82
:1020C000C1F3950F50E0551F629FF001729FBB272F
:1020D000F00DB11D639FAA27F00DB11DAA1F649FCB
:1020E0006627B00DA11D661F829F2227B00DA11D7E
:1020F000621F739FB00DA11D621F839FA00D611D04
:10210000221F749F3327A00D611D231F849F600D24
:10211000211D822F762F6A2F11249F5750409AF04D
:10212000F1F088234AF0EE0FFF1FBB1F661F771FD9
:10213000881F91505040A9F79E3F510580F00C94A4
:10214000F80F0C9443105F3FE4F3983ED4F3869568
:1021500077956795B795F795E7959F5FC1F7FE2B44
:10216000880F911D9695879597F90895EE0FFF1F9B
:102170000590F491E02D0994EF920F931F93CF9364
:10218000DF93E80147FD02C034E001C034E1042ED2
:10219000000C550B57FF03C0519541955109E32E93
:1021A000022F242FAE010E94DF12CE01DF91CF91CA
:1021B0001F910F91EF900895AEE0B0E0E2EEF0E1F4
:1021C0000C94CF150D891E8986E08C831A830983B0
:1021D0008FEF9FE79E838D83AE01475E5F4F6F89D0
:1021E000788DCE0101960E94FE10EF81F885E00FF8
:1021F000F11F10822E96E4E00C94EB15ABE0B0E0FA
:10220000E4E0F1E10C94C1156C017B018A01FC0151
:1022100017821682838181FFCCC1CE0101963C01D9
:10222000F6019381F70193FD859193FF81917F01E1
:10223000882309F4BAC1853239F493FD859193FF5F
:1022400081917F01853229F4B60190E00E94271523
:10225000E7CF912C212C312CFFE1F315D8F08B32F4
:1022600079F038F4803279F08332A1F4232D2061A3
:102270001DC08D3261F0803369F4232D216016C0BA
:10228000832D8260382EE32DE4603E2E2AC0F32D8C
:10229000F8601DC037FC2DC020ED280F2A3040F01B
:1022A0008E32B9F436FC81C1232D2064322E19C040
:1022B00036FE06C08AE0989E200D1124922E11C091
:1022C000EAE02E9E200D1124222EF32DF0623F2EE7
:1022D00008C08C3621F4832D8068382E02C08836E1
:1022E00041F4F70193FD859193FF81917F01811165
:1022F000B3CF982F9F7D9554933028F40C5F1F4FD8
:102300009FE399830DC0833631F0833771F08335B5
:1023100009F059C021C0F801808189830E5F1F4FE9
:1023200088248394912C530113C02801F2E04F0EAE
:10233000511CF801A080B18036FE03C0692D70E009
:1023400002C06FEF7FEFC5010E941C154C01820196
:10235000F32DFF773F2E16C0280122E0420E511CBC
:10236000F801A080B18036FE03C0692D70E002C084
:102370006FEF7FEFC5010E9411154C01F32DF0683E
:102380003F2E820133FC1BC0822D90E088169906F7
:10239000B0F4B60180E290E00E9427152A94F4CFB1
:1023A000F50137FC859137FE81915F01B60190E020
:1023B0000E94271521102A9421E0821A9108811485
:1023C000910471F7E8C0843611F0893641F5F801BF
:1023D00037FE07C060817181828193810C5F1F4F3E
:1023E00008C060817181072E000C880B990B0E5F6D
:1023F0001F4FF32DFF763F2E97FF09C090958095D4
:10240000709561957F4F8F4F9F4FF0683F2E2AE068
:1024100030E0A3010E946315882E861845C08537D9
:1024200031F4232D2F7EB22E2AE030E025C0932DEB
:10243000997FB92E8F36C1F018F4883579F0B5C080
:10244000803719F0883721F0B0C0E92FE061BE2E47
:10245000B4FE0DC0FB2DF460BF2E09C034FE0AC0CF
:10246000292F2660B22E06C028E030E005C020E10A
:1024700030E002C020E132E0F801B7FE07C0608121
:102480007181828193810C5F1F4F06C060817181D1
:1024900080E090E00E5F1F4FA3010E946315882E1D
:1024A0008618FB2DFF773F2E36FE0DC0232D2E7F85
:1024B000A22E891458F434FE0BC032FC09C0832DBF
:1024C0008E7EA82E05C0B82CA32C03C0B82C01C04A
:1024D000B92CA4FE0FC0FE01E80DF11D80818033F0
:1024E00021F49A2D997EA92E09C0A2FE06C0B394AC
:1024F000B39404C08A2D867809F0B394A3FC11C06C
:10250000A0FE06C0B21488F4280C922C9B180EC0B2
:10251000B21460F4B60180E290E00E942715B394F3
:10252000F7CFB21418F42B1802C0982C212CA4FE5B
:1025300010C0B60180E390E00E942715A2FE17C0EC
:10254000A1FC03C088E790E002C088E590E0B601F6
:102550000CC08A2D867859F0A1FE02C08BE201C022
:1025600080E2A7FC8DE2B60190E00E942715891455
:1025700038F4B60180E390E00E9427159A94F7CFD3
:102580008A94F301E80DF11D8081B60190E00E946C
:1025900027158110F5CF222009F442CEB60180E242
:1025A00090E00E9427152A94F6CFF6018681978144
:1025B00002C08FEF9FEF2B96E2E10C94DD15A9E0AE
:1025C000B0E0E5EEF2E10C94C7156A01122FB02ECF
:1025D0002BE3201720F0FF24F394F00E02C02CE32D
:1025E000F22E0F2D27E0AE014F5F5F4F0E9439148E
:1025F000BC014981842F8970813031F0E1FC06C033
:10260000E0FE06C090E205C09DE203C09BE201C06F
:1026100090E05E2D507143FF3CC0911102C083E0F9
:1026200001C084E0811718F4212F281B01C020E08D
:1026300051110BC0F601822F30E2882319F031933B
:102640008150FBCFC20ED11C20E0992329F0D60186
:102650009C93F60131966F01C6010396E2FE0AC013
:102660003EE4D6013C9341E411964C9311971296A7
:102670003C9306C03EE6F601308341E64183328357
:10268000FC01322F40E2332309F442C04193315020
:10269000FACF42FF44C0911102C083E001C084E040
:1026A000811718F4212F281B01C020E051110BC005
:1026B000F601822F30E2882319F031938150FBCF4D
:1026C000C20ED11C20E0992329F0D6019C93F6017B
:1026D00031966F01C6010396E2FE0BC039E4D601C4
:1026E0003C933EE411963C93119736E412963C934A
:1026F00007C039E6F60130833EE6318336E63283A1
:10270000FC01322F40E2332319F041933150FBCFCB
:10271000FC01E20FF11D10828EEF9FEFA6C021E0B9
:1027200030E0911102C020E030E0161617061CF4CC
:10273000FB01319602C0E1E0F0E02E0F3F1FBB200D
:1027400021F0EB2DF0E0319602C0E0E0F0E02E0F3A
:102750003F1FE12FF0E02E173F071CF4121B212F23
:1027600001C020E08E2D887159F4F601822F30E2ED
:10277000882319F031938150FBCFC20ED11C20E089
:10278000992329F0D6019C93F60131966F015111DE
:102790000BC0F601822F90E3882319F091938150AA
:1027A000FBCFC20ED11C20E00F2D060F9A81342FD3
:1027B000307144FF03C0913309F40150101624F422
:1027C000093018F008E001C001E0AB0177FF02C05A
:1027D00040E050E0FB01E41BF50BA1E0B0E0AC0FE2
:1027E000BD1FEA0FFB1F8EE2A82E4B01801A910835
:1027F0000B2D10E01195019511094F3FBFEF5B07BD
:1028000021F4D601AC9211966D01641775072CF076
:102810008416950614F4818101C080E3415051096A
:102820003196D60111967D014017510724F0D6014B
:102830008C936701E2CF6417750739F4963320F45F
:10284000953319F4311101C081E3F6018083F7015A
:10285000822F90E2882319F091938150FBCFF701EA
:10286000E20FF11D108280E090E02996ECE00C94DC
:10287000E315283008F027E03327DA01990F311DDE
:1028800087FD916000966105710539F432602E5F15
:102890003D9330E32A95E1F708959F3F30F080386B
:1028A0007105610509F03C5F3C5F3D93913008F094
:1028B0008068911DDF93CF931F930F93FF92EF9248
:1028C000192F987F9695E92F96959695E90FFF27F2
:1028D000E053FF4F99273327EE24FF24A701E70198
:1028E00005900894079428F4360FE71EF81E491F38
:1028F000511D660F771F881F991F0694A1F7059039
:10290000079428F4E70EF81E491F561FC11D770FC4
:10291000881F991F661F0694A1F70590079428F455
:10292000F80E491F561FC71FD11D880F991F661F1C
:10293000771F0694A1F70590079420F4490F561FBE
:10294000C71FD81F990F661F771F881F0694A9F706
:1029500084911095177041F0D695C7955795479576
:10296000F794E7941A95C1F7E6E7F0E068941590BC
:10297000159135916591959105907FE27395E118D8
:10298000F10A430B560BC90BD009C0F7E10CF11E3D
:10299000431F561FC91FD01D7EF4703311F48A9552
:1029A000E6CFE894015030F0080F0AF40027021730
:1029B00008F4202F2395022F7A3328F079E37D93B2
:1029C0002A95E9F710C07D932A9589F60694979584
:1029D0006795379517951794E118F10A430B560B35
:1029E000C90BD00998F023957E9173957A3308F03E
:1029F00070E37C932013B8F77E9170617D9330F083
:102A0000839571E37D9370E32A95E1F71124EF90AC
:102A1000FF900F911F91CF91DF91992787FD90959E
:102A20000895FC010590615070400110D8F7809521
:102A300090958E0F9F1F0895FC016150704001908A
:102A40000110D8F7809590958E0F9F1F08950F93D2
:102A50001F93CF93DF93FB01238121FD03C08FEFF1
:102A60009FEF2CC022FF16C04681578124813581FB
:102A70004217530744F4A081B1819D012F5F3F4F5E
:102A8000318320838C93268137812F5F3F4F37839B
:102A9000268314C08B01EC01FB010084F185E02D3D
:102AA0000995892BE1F6D80116968D919C9117977F
:102AB000019617969C938E931697CE01DF91CF9136
:102AC0001F910F910895FA01AA27283051F1203162
:102AD00081F1E8946F936E7F6E5F7F4F8F4F9F4FB2
:102AE000AF4FB1E03ED0B4E03CD0670F781F891FF4
:102AF0009A1FA11D680F791F8A1F911DA11D6A0FC2
:102B0000711D811D911DA11D20D009F468943F9174
:102B10002AE0269F11243019305D3193DEF6CF0173
:102B20000895462F4770405D4193B3E00FD0C9F739
:102B3000F6CF462F4F70405D4A3318F0495D31FDA6
:102B40004052419302D0A9F7EACFB4E0A6959795F9
:102B5000879577956795BA95C9F7009761057105CF
:102B600008959B01AC010A2E069457954795379519
:102B70002795BA95C9F7620F731F841F951FA01D73
:102B800008952F923F924F925F926F927F928F9211
:102B90009F92AF92BF92CF92DF92EF92FF920F93EC
:102BA0001F93CF93DF93CDB7DEB7CA1BDB0B0FB6F6
:102BB000F894DEBF0FBECDBF09942A8839884888B3
:102BC0005F846E847D848C849B84AA84B984C88449
:102BD000DF80EE80FD800C811B81AA81B981CE0F40
:102BE000D11D0FB6F894DEBF0FBECDBFED01089525
:042BF000F894FFCF87
:102BF40001FF01FF253032643A253032643A253032
:102C04003264002020202000253032643A253032FE
:102C1400642D2D253032643A253032640025346425
:102C240056006B57003C4F4E3E003C4F463E005012
:102C34004F4445534156414E4A4520534154410067
:102C440020205550414C492D2D55474153492020B2
:102C54000020204A45444E4F4B5241544E4F3A2097
:102C640020002534642020000A002564004A4544DD
:102C74004E4F4B5241544E4F0000000000504F4401
:102C840045534920504552494F44202000504F4459
:102C94004553492053415420202020200042524FC4
:0E2CA4004A494C4F20202020202020200000F4
:00000001FF
