:100000000C94B8000C94D5000C94D5000C94D50039
:100010000C94400D0C94D5000C94D5000C94D50094
:100020000C94D5000C94D5000C94D5000C94D500FC
:100030000C94D5000C94D5000C94C00E0C94D500F3
:100040000C94D5000C94D5000C94250F0C94D5007D
:100050000C94190F0C94E4000C94D5000C94D5006A
:100060000C94D5000C94D5009C06F5062207C90710
:10007000B608D809F90A00407A10F35A00A0724E67
:1000800018090010A5D4E80000E87648170000E43D
:100090000B54020000CA9A3B000000E1F505000085
:1000A00080969800000040420F000000A0860100EA
:1000B0000000102700000000E803000000006400BA
:1000C000000000000A000000000001000000000025
:1000D0002C76D888DC674F0823DFC1DFAE59E1B149
:1000E000B796E5E3E453C63AE651997696E8E6C258
:1000F0008426EB898C9B62ED407C6FFCEFBC9C9F5F
:1001000040F2BAA56FA5F490055A2AF75C936B6C80
:10011000F9676DC11BFCE0E40D47FEF520E6B50074
:10012000D0ED902E0300943577050080841E0800E2
:1001300000204E0A000000C80C333333330F986E92
:1001400012831141EF8D2114893BE65516CFFEE64F
:10015000DB18D1844B381BF77C1D901DA4BBE42415
:10016000203284725E228100C9F124ECA1E53D2792
:1001700011241FBECFEFD8E0DEBFCDBF11E0A0E05D
:10018000B1E0E4E7FEE202C005900D92A03CB107A9
:10019000D9F722E0A0ECB1E001C01D92A835B2076A
:1001A000E1F70E940F0B0C9438170C94000010928A
:1001B000640080EC80937C008EEE80937A00109235
:1001C0007B001092C10108951F920F920FB60F92FB
:1001D00011248F9381E08093C0018F910F900FBE07
:1001E0000F901F9018958F929F92AF92BF92CF92CF
:1001F000DF92EF92FF928091C001882309F485C0BD
:100200001092C0018091C101811109C080917800D4
:10021000909179009093D3018093D2010AC08130EC
:1002200041F480917800909179009093D10180936E
:10023000D0016091D2017091D30180E090E00E94E2
:10024000FB102AE939E949E650E40E945A100E945D
:10025000CC106B017C017093CF016093CE01609153
:10026000D0017091D10180E090E00E94FB1024E168
:100270003EEA43E252E40E945A104B015C01609353
:10028000CA017093CB018093CC019093CD01B6014C
:1002900080E090E00E94FB10A50194010E9489116A
:1002A00020E030E04AE754E40E945A106093C6010F
:1002B0007093C7018093C8019093C901EAE7F0E009
:1002C00080818F7780838091C1018F5F8093C1018E
:1002D000823018F01092C10105C0882319F08130D6
:1002E00039F00EC0ECE7F0E080818C7F808308C09D
:1002F000ECE7F0E080818D7F808380818160808366
:10030000EAE7F0E08081806C8083FF90EF90DF90DF
:10031000CF90BF90AF909F908F900895F999FECFA6
:1003200092BD81BDF89A80B50895F999FECF92BD2E
:1003300081BD60BDF894FA9AF99A78940895109264
:10034000B90088E48093B8000895CF93DF93ECEB75
:10035000F0E024EAA9EBB0E0CBEBD0E034E844E9EC
:10036000208390819923ECF79C91987F983011F02D
:100370009031B1F78883308390819923ECF79C9179
:10038000987F903211F0983529F44083908194FD44
:10039000FDCFE6CFDF91CF91089584E98093BC0033
:1003A000ECEBF0E0808184FDFDCF08958093BB00ED
:1003B00084E88093BC00ECEBF0E080818823ECF7CC
:1003C0009091B900987F81E0983209F480E0089517
:1003D00084E88093BC00ECEBF0E080818823ECF7AC
:1003E0008091BB000895CF93C82F862F0E94A5014E
:1003F0008C2F0E94D6010E94CD01CF9108950F93BA
:100400001F93CF93DF93FC01062F172FEA012111D1
:1004100028C0808199EE980F963018F08F5F808306
:1004200001C0108280811F928F9389E191E09F9398
:100430008F931F930F930E941C12888161E081505B
:100440000E94D503802F912F0E94DE0361E08881F6
:100450000E94D5030F900F900F900F900F900F9068
:1004600028C0213031F5808181508A3F10F480838B
:1004700002C087E1808380811F928F9389E191E0A0
:100480009F938F931F930F930E941C12888161E0AA
:1004900081500E94D503802F912F0E94DE0361E0DE
:1004A00088810E94D5030F900F900F900F900F90AE
:1004B0000F90DF91CF911F910F9108950F931F938C
:1004C000CF93DF93FC01062F172FEA01211128C0DB
:1004D000808195EC980F953018F08F5F808301C074
:1004E000108280811F928F9389E191E09F938F9377
:1004F0001F930F930E941C12888161E081500E941B
:10050000D503802F912F0E94DE0361E088810E9435
:10051000D5030F900F900F900F900F900F9028C061
:10052000213031F5808181508A3F10F4808302C0F0
:100530008BE3808380811F928F9389E191E09F9369
:100540008F931F930F930E941C12888161E081504A
:100550000E94D503802F912F0E94DE0361E08881E5
:100560000E94D5030F900F900F900F900F900F9057
:10057000DF91CF911F910F9108950F931F93CF9308
:10058000DF93FC01062F172FEA01211128C080817B
:1005900095EC980F953018F08F5F808301C0108222
:1005A00080811F928F9389E191E09F938F931F9396
:1005B0000F930E941C12888161E081500E94D50334
:1005C000802F912F0E94DE0361E088810E94D50375
:1005D0000F900F900F900F900F900F9028C0213028
:1005E00031F5808181508A3F10F4808302C08BE313
:1005F000808380811F928F9389E191E09F938F93F5
:100600001F930F930E941C12888161E081500E9409
:10061000D503802F912F0E94DE0361E088810E9424
:10062000D5030F900F900F900F900F900F90DF91C8
:10063000CF911F910F910895CF93C82F8091F10111
:1006400084608093F1016EE40E94F30187EC90E0F6
:100650000197F1F700C00000C295C07F8091F101C1
:100660006EE48C2B0E94F3018091F1018B7F8093CB
:10067000F1016EE40E94F30187EC90E00197F1F73D
:1006800000C00000CF910895CF93DF93C82FD82FDB
:10069000D295DF70611109C08091F1018E7F809346
:1006A000F1016EE40E94F30108C08091F1018160C4
:1006B0008093F1016EE40E94F3018D2F0E941C03D0
:1006C0008C2F0E941C03DF91CF910895CF93C82FE8
:1006D0008091F10181608093F1016EE40E94F30149
:1006E0008C2F82958F700E941C038C2F0E941C03FC
:1006F000CF9108951092F1018FE59AEE0197F1F7ED
:1007000000C0000083E00E941C038FE79EE3019776
:10071000F1F700C0000083E00E941C038FE891E025
:100720000197F1F700C0000083E00E941C038FE9ED
:100730009FE00197F1F700C0000082E00E941C03D7
:100740008FE99FE00197F1F700C0000060E088E2C8
:100750000E9444038FE99FE00197F1F700C0000079
:1007600060E08CE00E9444038FE99FE00197F1F77D
:1007700000C0000060E086E00E9444038FE99FE033
:100780000197F1F700C000008091F101886080932B
:10079000F1016EE40E94F3018091F1018D7F80935D
:1007A000F1016EE40E94F301089590E4699F800DC9
:1007B000112460E080680E94440308950F931F9302
:1007C000CF93FC018081882359F08F01C0E00E9403
:1007D0006603CF5FF801EC0FF11D80818111F7CF27
:1007E000CF911F910F910895882329F060E08FE049
:1007F0000E944403089560E08CE00E944403089541
:10080000FA01DC0112962C91129754E611968C9104
:1008100090E0529F800D911D1124DB0112962C91C6
:10082000129711966C9170E0529F600D711D11240A
:100830004281218130E0549F200D311D1124861703
:10084000970768F02817390720F02833B9E03B07ED
:1008500078F081E02617370770F080E008952817B8
:10086000390740F081E02617370728F080E0089527
:1008700081E0089580E008950F931F93CF93DF9355
:100880008C01EB01F901DC0112968C9112978831F1
:1008900028F087E112968C9381E001C080E0D801B6
:1008A00011969C9111979C3318F011961C9281E03F
:1008B0009A81983118F086E08A8381E099819C338F
:1008C00018F08EE1898381E0DA0112969C911297EB
:1008D000983120F08EE012968C9381E0DA01119627
:1008E0009C9111979C3318F011961C9281E0928193
:1008F000983118F08FE0828381E091819C3310F071
:10090000118281E0DF91CF911F910F91089560E0F6
:1009100080E00E94D50384E091E00E94DE038DE038
:1009200092E00E94DE0384E091E00E94DE0361E039
:1009300080E00E94D50386E091E00E94DE03E5E4BA
:10094000F2E081811F928F9382811F928F93E3E364
:10095000F2E081811F928F9382811F928F9389E0B1
:1009600091E09F938F938DE092E09F938F930E94ED
:100970001C128DE092E00E94DE0386E091E00E946E
:10098000DE038DB79EB70C960FB6F8949EBF0FBED0
:100990008DBF0895CF93DF93C091DC010C2E000C26
:1009A000DD0B60E080E00E94D50386E291E00E94CA
:1009B000DE0361E080E00E94D50387E091E00E94C1
:1009C000DE0360E081E00E94D5038091DC0120E13C
:1009D0008202C001112481589E4F0E94DE03809143
:1009E000DC01811115C08091D901813049F460E0AA
:1009F0008CE00E94D5038EE191E00E94DE0308C0E6
:100A000060E08CE00E94D50383E291E00E94DE0367
:100A10008091DC018330A9F48091DA01882349F0C8
:100A200060E08CE00E94D5038EE191E00E94DE033D
:100A300008C060E08CE00E94D50383E291E00E9450
:100A4000DE0361E081E00E94D503C330D105E9F106
:100A5000CE0182959295907F9827807F9827815725
:100A60009E4F0E94DE03CF3F8FEFD807B1F48091F5
:100A7000D901813049F461E08CE00E94D5038EE118
:100A800091E00E94DE0326C061E08CE00E94D50365
:100A900083E291E00E94DE031DC02297D9F4809189
:100AA000DA01882349F061E08CE00E94D5038EE1F1
:100AB00091E00E94DE030EC061E08CE00E94D5034D
:100AC00083E291E00E94DE0305C08FE791E00E947F
:100AD000DE03CDCFDF91CF91089560E080E00E94EA
:100AE000D50388E291E00E94DE0361E080E00E948D
:100AF000D50384E091E00E94DE038DE092E00E9445
:100B0000DE0384E091E00E94DE0361E08091DB017E
:100B10000E94D50381E00E94F4030895EAE2F2E026
:100B200081811F928F9382811F928F93ECE3F2E079
:100B300081811F928F9382811F928F9389E091E030
:100B40009F938F938DE092E09F938F930E941C124E
:100B500060E080E00E94D50389E391E00E94DE031B
:100B600061E080E00E94D50386E091E00E94DE0310
:100B70008DE092E00E94DE0386E091E00E94DE03B9
:100B800061E08091DB010E94D50381E00E94F403C3
:100B90008DB79EB70C960FB6F8949EBF0FBE8DBF53
:100BA0000895EAE2F2E081811F928F9382811F9281
:100BB0008F93ECE3F2E081811F928F9382811F92E9
:100BC0008F9389E091E09F938F938DE092E09F93C4
:100BD0008F930E941C1260E080E00E94D5038AE49B
:100BE00091E00E94DE0361E080E00E94D50386E090
:100BF00091E00E94DE038DE092E00E94DE0386E039
:100C000091E00E94DE0361E08091DB010E94D50348
:100C100081E00E94F4038DB79EB70C960FB6F8944E
:100C20009EBF0FBE8DBF08950F931F938091CF017C
:100C30008F938091CE018F938BE591E09F938F935B
:100C40008DE092E09F938F930E941C1260E080E001
:100C50000E94D5038DE092E00E94DE0385E091E0E2
:100C60000E94DE036091C6017091C7018091C801A6
:100C70009091C9010DE012E022E030E044E050E044
:100C80000E94FC1160E089E00E94D503C8010E9427
:100C9000DE0380E691E00E94DE036091CA0170915C
:100CA000CB018091CC019091CD0121E030E045E075
:100CB00050E00E94FC1161E080E00E94D503C80171
:100CC0000E94DE0387E391E00E94DE0385E091E06D
:100CD0000E94DE036091C2017091C3018091C40142
:100CE0009091C50122E030E045E050E00E94FC1107
:100CF00061E088E00E94D503C8010E94DE0384E61B
:100D000091E00E94DE030F900F900F900F900F90D4
:100D10000F901F910F9108950F93CF93DF93E09160
:100D2000DD018E2F90E08730910508F074C4FC013E
:100D3000EC5CFF4F0C94F61180910001882331F098
:100D4000109200011092E6011092E5018091DA0103
:100D5000813061F48091E5019091E60189359B41F4
:100D600028F081E0809300018093DD018091E00113
:100D7000882361F11092E00100E029E232E041E2D3
:100D800052E062E272E083E292E00E94460EE1E20B
:100D9000F2E080811F928F9381811F928F938281D5
:100DA0001F928F9388E691E09F938F938DE092E05E
:100DB0009F938F930E941C120E9487048DB79EB749
:100DC0000A960FB6F8949EBF0FBE8DBF61E080916A
:100DD00001010E948B0D882309F41DC481E08093DA
:100DE000000182E08093DD0116C480910001882318
:100DF00031F0109200011092E6011092E50180910D
:100E0000E5019091E601813A9F4028F081E08093CE
:100E100000011092DD018091E401882321F01092FD
:100E2000E4010E94140661E0809101010E948B0D93
:100E3000882309F4F0C381E08093000182E080936D
:100E4000DD01E9C30E94CA0465E0809101010E94AE
:100E50008B0D882359F08091DC018F5F84301CF466
:100E60008093DC01D8C31092DC01D5C364E080918B
:100E700001010E948B0D882359F08091DC01815083
:100E80001AF08093DC01C7C383E08093DC01C3C305
:100E90008091DC01823059F461E0809101010E946F
:100EA0008B0D882321F083E08093DD01B4C3809112
:100EB000DC01813059F461E0809101010E948B0DC9
:100EC000882321F084E08093DD01A5C38091DC01BB
:100ED000811125C061E0809101010E948B0D882362
:100EE00021F085E08093DD0196C38091DC018111C2
:100EF00016C062E0809101010E948B0D811107C034
:100F000063E0809101010E948B0D882341F081E014
:100F10009091D901911180E08093D9017CC3809197
:100F2000DC01833049F561E0809101010E948B0D65
:100F3000882321F086E08093DD016DC38091DC0180
:100F40008330D1F462E0809101010E948B0D811108
:100F500007C063E0809101010E948B0D882361F03E
:100F600061E08091DA01811160E06093DA018CE048
:100F700090E00E9495014FC360E0809101010E94C2
:100F80008B0D882309F447C31092DC011092DD0118
:100F900042C380910001882369F11092000189E029
:100FA000E1E2F2E0A4E0B2E001900D928A95E1F76F
:100FB000E4E0F2E080811F928F9381811F928F93F2
:100FC00082811F928F9388E691E09F938F938DE0AB
:100FD00092E09F938F930E941C1285E08093DB0127
:100FE0000E946D058DB79EB70A960FB6F8949EBF06
:100FF0000FBE8DBF63E0809101010E948B0D88239D
:1010000089F08091DB018D5F8C301CF48093DB01D3
:1010100003C08BE08093DB0161E08091DB010E94E3
:10102000D503F9C262E0809101010E948B0D8823F3
:1010300089F08091DB01835085301CF08093DB01C7
:1010400003C085E08093DB0161E08091DB010E94B9
:10105000D503E1C264E0809101010E948B0D8823D9
:1010600039F18091DB01853051F420E04BED51E006
:101070006DE072E086E092E00E94FF01CCC2883011
:1010800051F420E04BED51E06DE072E085E092E03C
:101090000E945E02C0C28B3009F0BDC220E04BED61
:1010A00051E06DE072E084E092E00E94BD02B3C2C4
:1010B00065E0809101010E948B0D882339F18091B8
:1010C000DB01853051F421E04BED51E06DE072E041
:1010D00086E092E00E94FF019EC2883051F421E038
:1010E0004BED51E06DE072E085E092E00E945E021F
:1010F00092C28B3009F08FC221E04BED51E06DE0E0
:1011000072E084E092E00E94BD0285C261E08091BD
:1011100001010E948B0D8823A9F0E4E0F2E000E0D9
:1011200020E04081618182810E94840E81E0809371
:1011300000011092DB0180E00E94F40382E08093C2
:10114000DD0169C260E0809101010E948B0D88235E
:1011500009F461C281E0809300011092DB0180E01C
:101160000E94F40382E08093DD0155C2809100016A
:101170008823C9F01092000189E0E3E3F2E0ACE3D8
:10118000B2E001900D928A95E1F789E0E5E4F2E0A2
:10119000AAE2B2E001900D928A95E1F783E0809394
:1011A000DB010E948E0563E0809101010E948B0D9E
:1011B0008823C9F08091DB019CEF980F933020F4D5
:1011C0008AE08093DB0109C08D5F8E301CF4809330
:1011D000DB0103C08DE08093DB0161E08091DB01E6
:1011E0000E94D50318C262E0809101010E948B0D1C
:1011F0008823C9F08091DB0196EF980F933020F49B
:1012000086E08093DB0109C0835083301CF080931B
:10121000DB0103C083E08093DB0161E08091DB01AF
:101220000E94D503F8C164E0809101010E948B0DFA
:10123000882399F18091DB01833051F420E04BED5C
:1012400051E06DE072E08EE392E00E94FF01E3C1A5
:10125000863051F420E04BED51E06DE072E08DE31B
:1012600092E00E945E02D7C18A3051F420E04BED3B
:1012700051E06DE072E08CE292E00E94FF01CBC190
:101280008D3009F0C8C120E04BED51E06DE072E017
:101290008BE292E00E945E02BEC165E08091010196
:1012A0000E948B0D882399F18091DB01833051F4EA
:1012B00021E04BED51E06DE072E08EE392E00E94A0
:1012C000FF01A9C1863051F421E04BED51E06DE002
:1012D00072E08DE392E00E945E029DC18A3051F47B
:1012E00021E04BED51E06DE072E08CE292E00E9473
:1012F000FF0191C18D3009F08EC121E04BED51E02D
:101300006DE072E08BE292E00E945E0284C161E0D7
:10131000809101010E948B0D8823B1F189E0ECE3FB
:10132000F2E0A3E3B2E001900D928A95E1F789E043
:10133000EAE2F2E0A5E4B2E001900D928A95E1F7CD
:10134000C3E3D2E06A8180E090E00E949501698168
:1013500081E090E00E949501C5E4D2E06A8182E0DC
:1013600090E00E949501698183E090E00E949501E0
:1013700081E0809300011092DB0180E00E94F40381
:1013800082E08093DD0147C160E0809101010E940D
:101390008B0D882309F43FC181E0809300011092F6
:1013A000DB0180E00E94F40382E08093DD0133C121
:1013B000809100018823C9F01092000189E0EBEFD1
:1013C000F1E0ACE3B2E001900D928A95E1F789E09B
:1013D000E2EFF1E0AAE2B2E001900D928A95E1F726
:1013E00083E08093DB010E94D10563E080910101DD
:1013F0000E948B0D8823C9F08091DB019CEF980F30
:10140000933020F48AE08093DB0109C08D5F8E3039
:101410001CF48093DB0103C08DE08093DB0161E06D
:101420008091DB010E94D503F6C062E0809101014A
:101430000E948B0D8823C9F08091DB0196EF980FF5
:10144000933020F486E08093DB0109C08350833021
:101450001CF08093DB0103C083E08093DB0161E03B
:101460008091DB010E94D503D6C064E08091010128
:101470000E948B0D882399F18091DB01833051F418
:1014800020E04BED51E06DE072E08EE392E00E94CF
:10149000FF01C1C0863051F420E04BED51E06DE01A
:1014A00072E08DE392E00E945E02B5C08A3051F492
:1014B00020E04BED51E06DE072E08CE292E00E94A2
:1014C000FF01A9C08D3009F0A6C020E04BED51E02E
:1014D0006DE072E08BE292E00E945E029CC065E0EB
:1014E000809101010E948B0D882399F18091DB018D
:1014F000833051F421E04BED51E06DE072E08EE37A
:1015000092E00E94FF0187C0863051F421E04BED4C
:1015100051E06DE072E08DE392E00E945E027BC0DC
:101520008A3051F421E04BED51E06DE072E08CE245
:1015300092E00E94FF016FC08D3009F06CC021E085
:101540004BED51E06DE072E08BE292E00E945E02B2
:1015500062C061E0809101010E948B0D8823B1F18E
:1015600089E0ECE3F2E0ABEFB1E001900D928A95F7
:10157000E1F789E0EAE2F2E0A2EFB1E001900D923A
:101580008A95E1F7CBEFD1E06A8184E090E00E9498
:101590009501698185E090E00E949501C2EFD1E05C
:1015A0006A8186E090E00E949501698187E090E081
:1015B0000E94950181E0809300011092DB0180E0A0
:1015C0000E94F40382E08093DD0125C060E08091F9
:1015D00001010E948B0D8823F1F081E080930001CE
:1015E0001092DB0180E00E94F40382E08093DD0131
:1015F00012C08091E401882321F01092E4010E943E
:10160000140660E0809101010E948B0D882319F07F
:1016100082E08093DD01DF91CF910F9108950E94C8
:10162000B70E0E949F010E947A030E94D70060E2D9
:1016300071EA87E090E00E94500F0E94390E0E94EC
:10164000340D0E94530D259A249A789480E090E0FE
:101650000E948E01C3E3D2E08A8381E090E00E9481
:101660008E01898382E090E00E948E01C5E4D2E081
:101670008A8383E090E00E948E01898384E090E079
:101680000E948E01CBEFD1E08A8385E090E00E943A
:101690008E01898386E090E00E948E01C2EFD1E046
:1016A0008A8387E090E00E948E01898388E090E041
:1016B0000E948E0190E0A0E0B0E08093D40190936E
:1016C000D501A093D601B093D70189E090E00E94A4
:1016D0008E014091D4015091D5016091D601709155
:1016E000D701582B4093D4015093D5016093D60174
:1016F0007093D7018AE090E00E948E014091D4015E
:101700005091D5016091D6017091D701682B40931B
:10171000D4015093D5016093D6017093D7018BE02B
:1017200090E00E948E014091D4015091D5016091CA
:10173000D6017091D7018A019B01382BC901B801EC
:101740000093D4011093D5012093D6013093D70193
:101750000E94FB1020E030E048EC52E40E945A1056
:101760006093C2017093C3018093C4019093C5013B
:101770008CE090E00E948E018093DA019E014BEF95
:1017800051E065E472E083E392E00E943C0489E06A
:10179000E3E3F2E0ACE3B2E001900D928A95E1F769
:1017A00089E0E5E4F2E0AAE2B2E001900D928A95C8
:1017B000E1F70F2EF7E7EF2EF1E0FF2EF02DCDE051
:1017C000D2E00F2EFBEADF2EF02DCC24C3940E9432
:1017D000620D809301010E94F3008091D3018F93E9
:1017E0008091D2018F93FF92EF92DF93CF930E946B
:1017F0001C12CE010E94DA0F8091D1018F9380914B
:10180000D0018F93FF92EF92DF93CF930E941C122F
:10181000CE010E94DA0F8091CF018F938091CE018B
:101820008F93FF92EF92DF93CF930E941C12CE0111
:101830000E94DA0F6091CA017091CB018091CC01B6
:101840009091CD018E0121E030E044E050E00E9413
:10185000FC11CE010E94DA0F86E091E00E94DA0FBF
:101860006091C6017091C7018091C8019091C90132
:1018700022E030E044E050E00E94FC11CE010E94E2
:10188000DA0F86E091E00E94DA0F6091C201709158
:10189000C3018091C4019091C50122E030E045E090
:1018A00050E00E94FC11CE010E94DA0F8DE791E01A
:1018B0000E94DA0F8091DF010DB71EB70E5E1F4F39
:1018C0000FB6F8941EBF0FBE0DBF882309F4C9C020
:1018D0001092DF0100E029E232E041E252E062E2F0
:1018E00072E083E292E00E94460E20E030E041E6A2
:1018F00055E46091C6017091C7018091C801909133
:10190000C9010E945A109B01AC016091C201709103
:10191000C3018091C4019091C5010E94EE0F6093B4
:10192000C2017093C3018093C4019093C50190914B
:1019300023029D9D812D11248695282F220F820F31
:1019400098135DC080912202811159C080912102BB
:10195000811155C0911108C01092C2011092C301AB
:101960001092C4011092C50120E030E048EC52E42E
:101970006091C2017091C3018091C4019091C50131
:101980000E9489110E94CC106093D4017093D501FC
:101990008093D6019093D70188E090E00E94950152
:1019A0008091D4019091D501A091D601B091D70139
:1019B000692F7A2F8B2F992789E090E00E9495015B
:1019C0008091D4019091D501A091D601B091D70119
:1019D000BD01882799278AE090E00E9495018091B7
:1019E000D4019091D501A091D601B091D7016B2F70
:1019F0007727882799278BE090E00E9495018091B6
:101A0000D9018130D1F441E252E062EF71E08BEF15
:101A100091E00E940004882329F0C092DE01C09268
:101A2000D8010DC08091D801882349F01092DE01C1
:101A30001092D9011092D80102C01092DE0141E249
:101A400052E065E472E083E392E00E94000490912A
:101A5000DE01892B8093DE01882311F02D9A01C0CD
:101A60002D980E948C06B3CEE8E6F0E0808182607B
:101A70008083ECE6F0E08081886080833B98089565
:101A80001F920F920FB60F9211248F93339B05C0B4
:101A900081E08093E0018093DF018F910F900FBE72
:101AA0000F901F9018958AB18F708AB98AB1837F81
:101AB0008AB920988BB1806F8BB98BB18C608BB950
:101AC000289A08958091EC01882369F01092EC0126
:101AD00089B193B1282F2695269530E4939FC001B4
:101AE0001124822B01C08FEF9091ED01992381F099
:101AF0001092ED0129B193B1422F4695469550E4DD
:101B0000959F90011124242B821302C0809303011E
:101B1000809103010895282F30E020953095E62F1D
:101B2000A901062E02C0559547950A94E2F740FF99
:101B300017C09091E201911113C091E09093E201DE
:101B40006093E101809541E050E0062E02C0440F11
:101B5000551F0A94E2F7842309F045C081E00895F7
:101B60009091E101E92F809541E050E0092E02C0FB
:101B7000440F551F0A94E2F7842319F18CEF890F63
:101B8000823008F5691321C080E001C081E09091A6
:101B90000201913031F4109202011092E80110928A
:101BA000E7012091E7013091E8012039314000F14F
:101BB0009091EE019923E1F01092EE0191E08927D6
:101BC000089580E003C080E001C080E002C0359548
:101BD0002795EA95E2F720FD0BC01092E20191E013
:101BE0009093020108956450623080F281E0EECF5C
:101BF0000895982F92959F70990F292F220F220FE9
:101C0000920F8F70890F08959DEC899F912D11245B
:101C100096959695969520E1929FA0011124990F93
:101C2000292F220F220F920F891B8F70842B08956A
:101C3000CF93C82F80ED0E94A5018C2F0E94D60162
:101C400081ED0E94A5010E94E801CF910895CF93F4
:101C5000DF93D82FC62F80ED0E94A5018D2F0E9403
:101C6000D6018C2F0E94D6010E94CD01DF91CF9129
:101C7000089560E08EE00E94270E60E08FE00E94F1
:101C8000270E68EE80E10E94270E0895AF92BF9262
:101C9000CF92DF92EF92FF920F93CF93DF93EC01FD
:101CA0007B016A01590180E00E94180E0E94F90D23
:101CB000F601808381E00E94180E0E94F90DF70161
:101CC0008083013081F482E00E94180E85FB882712
:101CD00080F9F501808382E00E94180E8F710E94C6
:101CE000F90D888307C082E00E94180E8F730E944E
:101CF000F90D8883DF91CF910F91FF90EF90DF90E6
:101D0000CF90BF90AF9008950F931F93CF93DF9321
:101D1000D82FC62F842F122F0E94040E682F80E028
:101D20000E94270E8C2F0E94040E682F81E00E94D3
:101D3000270E013079F4113011F0C0E401C0C0E683
:101D40008D2F0E94040E8F71682F6C2B82E00E94F1
:101D5000270E08C08D2F0E94040E682F6F7382E03B
:101D60000E94270EDF91CF911F910F91089582E07D
:101D700084BD93E095BD99EF97BD80936E00089563
:101D80001F920F920FB60F9211248F939F9381E0B1
:101D90008093EF018091EB018F5F8093EB01809145
:101DA000E9018F5F8093E9018091EA018F5F809361
:101DB000EA018091E7019091E80101969093E80192
:101DC0008093E7018091E5019091E601019690935F
:101DD000E6018093E5018091E3018F5F8093E30149
:101DE0008091EB01843629F41092EB0181E080931D
:101DF000EE018091E901833029F41092E90181E03C
:101E00008093EC018091EA01863029F41092EA0176
:101E100081E08093ED018091E301843619F481E043
:101E20008093E4019F918F910F900FBE0F901F90B0
:101E300018951F920F920FB60F92112410924F0215
:101E40000F900FBE0F901F9018951F920F920FB614
:101E50000F9211248F93EF93FF938091C60080938C
:101E60004E028091F001883098F4E091F001F0E0AA
:101E700080914E02E05BFD4F80838091F0018F5F87
:101E80008093F001E091F001F0E0E05BFD4F108203
:101E9000FF91EF918F910F900FBE0F901F901895AB
:101EA00022E02093C00028ED2093C10026E020937B
:101EB000C20061152CE2720721E08207910509F446
:101EC00051C0C8F4603428E3720781059105A9F177
:101ED00030F4603875428105910541F164C06115A7
:101EE0002BE472078105910579F161157649810529
:101EF000910589F158C0603221EA720727E0820714
:101F00009105F1F130F46039704D8340910589F10C
:101F10004AC0603422E472072FE082079105B9F1CC
:101F2000603874488E419105C9F13DC08FEC90E056
:101F30009093C5008093C40008958AE890E0909340
:101F4000C5008093C400089587E690E09093C50093
:101F50008093C400089583E390E09093C50080933C
:101F6000C400089589E190E09093C5008093C40077
:101F7000089587E090E09093C5008093C400089591
:101F800083E090E09093C5008093C400089581E0C1
:101F900090E09093C5008093C40008951092C5000E
:101FA0001092C40008958FEC90E09093C500809348
:101FB000C4000895FC019081992371F03196A6EC3C
:101FC000B0E081E09C9380934F0290914F02911179
:101FD000FCCF91919111F6CF08955058BB27AA27B5
:101FE0000E9405100C944F110E94411138F00E947C
:101FF000481120F039F49F3F19F426F40C943E1157
:102000000EF4E095E7FB0C943811E92F0E94601163
:1020100058F3BA17620773078407950720F079F41D
:10202000A6F50C9482110EF4E0950B2EBA2FA02D7C
:102030000B01B90190010C01CA01A0011124FF2775
:10204000591B99F0593F50F4503E68F11A16F04070
:10205000A22F232F342F4427585FF3CF469537956F
:102060002795A795F0405395C9F77EF41F16BA0B34
:10207000620B730B840BBAF09150A1F0FF0FBB1FE2
:10208000661F771F881FC2F70EC0BA0F621F731F2B
:10209000841F48F4879577956795B795F7959E3F88
:1020A00008F0B0CF9395880F08F09927EE0F979519
:1020B000879508950E946E100C944F110E9448114C
:1020C00058F00E94411140F029F45F3F29F00C9430
:1020D000381151110C9483110C943E110E9460111F
:1020E00068F39923B1F3552391F3951B550BBB2747
:1020F000AA2762177307840738F09F5F5F4F220F8C
:10210000331F441FAA1FA9F335D00E2E3AF0E0E882
:1021100032D091505040E695001CCAF72BD0FE2FCC
:1021200029D0660F771F881FBB1F26173707480760
:10213000AB07B0E809F0BB0B802DBF01FF27935818
:102140005F4F3AF09E3F510578F00C9438110C9493
:1021500083115F3FE4F3983ED4F3869577956795B6
:10216000B795F7959F5FC9F7880F911D969587954D
:1021700097F90895E1E0660F771F881FBB1F62176C
:1021800073078407BA0720F0621B730B840BBA0B2A
:10219000EE1F88F7E09508950E94681188F09F5718
:1021A00098F0B92F9927B751B0F0E1F0660F771F7B
:1021B000881F991F1AF0BA95C9F714C0B13091F071
:1021C0000E948211B1E008950C948211672F782F3C
:1021D0008827B85F39F0B93FCCF386957795679536
:1021E000B395D9F73EF490958095709561957F4FA2
:1021F0008F4F9F4F0895E89409C097FB3EF4909548
:102200008095709561957F4F8F4F9F4F9923A9F0CF
:10221000F92F96E9BB279395F6958795779567955E
:10222000B795F111F8CFFAF4BB0F11F460FF1BC0A2
:102230006F5F7F4F8F4F9F4F16C0882311F096E935
:1022400011C0772321F09EE8872F762F05C06623E3
:1022500071F096E8862F70E060E02AF09A95660F9C
:10226000771F881FDAF7880F9695879597F9089555
:1022700097F99F6780E870E060E008959FEF80EC39
:10228000089500240A9416161706180609060895DC
:1022900000240A9412161306140605060895092E42
:1022A0000394000C11F4882352F0BB0F40F4BF2BB1
:1022B00011F460FF04C06F5F7F4F8F4F9F4F0895F1
:1022C00057FD9058440F551F59F05F3F71F04795E7
:1022D000880F97FB991F61F09F3F79F087950895CC
:1022E000121613061406551FF2CF4695F1DF08C0EB
:1022F000161617061806991FF1CF86957105610508
:1023000008940895E894BB2766277727CB0197F9AF
:1023100008950E949C110C944F110E94411138F0B5
:102320000E94481120F0952311F00C9438110C9460
:102330003E1111240C9483110E94601170F3959F3B
:10234000C1F3950F50E0551F629FF001729FBB27AC
:10235000F00DB11D639FAA27F00DB11DAA1F649F48
:102360006627B00DA11D661F829F2227B00DA11DFB
:10237000621F739FB00DA11D621F839FA00D611D81
:10238000221F749F3327A00D611D231F849F600DA2
:10239000211D822F762F6A2F11249F5750409AF0CB
:1023A000F1F088234AF0EE0FFF1FBB1F661F771F57
:1023B000881F91505040A9F79E3F510580F00C9422
:1023C00038110C9483115F3FE4F3983ED4F3869563
:1023D00077956795B795F795E7959F5FC1F7FE2BC2
:1023E000880F911D9695879597F90895EE0FFF1F19
:1023F0000590F491E02D0994EF920F931F93CF93E2
:10240000DF93E80147FD02C034E001C034E1042E4F
:10241000000C550B57FF03C0519541955109E32E10
:10242000022F242FAE010E941F14CE01DF91CF9105
:102430001F910F91EF900895AEE0B0E0E2E2F2E17B
:102440000C940F170D891E8986E08C831A830983EB
:102450008FEF9FE79E838D83AE01475E5F4F6F894D
:10246000788DCE0101960E943E12EF81F885E00F33
:10247000F11F10822E96E4E00C942B17ABE0B0E035
:10248000E4E4F2E10C9401176C017B018A01FC0188
:1024900017821682838181FFCCC1CE0101963C0157
:1024A000F6019381F70193FD859193FF81917F015F
:1024B000882309F4BAC1853239F493FD859193FFDD
:1024C00081917F01853229F4B60190E00E94671660
:1024D000E7CF912C212C312CFFE1F315D8F08B3272
:1024E00079F038F4803279F08332A1F4232D206121
:1024F0001DC08D3261F0803369F4232D216016C038
:10250000832D8260382EE32DE4603E2E2AC0F32D09
:10251000F8601DC037FC2DC020ED280F2A3040F098
:102520008E32B9F436FC81C1232D2064322E19C0BD
:1025300036FE06C08AE0989E200D1124922E11C00E
:10254000EAE02E9E200D1124222EF32DF0623F2E64
:1025500008C08C3621F4832D8068382E02C088365E
:1025600041F4F70193FD859193FF81917F018111E2
:10257000B3CF982F9F7D9554933028F40C5F1F4F55
:102580009FE399830DC0833631F0833771F0833533
:1025900009F059C021C0F801808189830E5F1F4F67
:1025A00088248394912C530113C02801F2E04F0E2C
:1025B000511CF801A080B18036FE03C0692D70E087
:1025C00002C06FEF7FEFC5010E945C164C018201D3
:1025D000F32DFF773F2E16C0280122E0420E511C3A
:1025E000F801A080B18036FE03C0692D70E002C002
:1025F0006FEF7FEFC5010E9451164C01F32DF0687B
:102600003F2E820133FC1BC0822D90E08816990674
:10261000B0F4B60180E290E00E9467162A94F4CFED
:10262000F50137FC859137FE81915F01B60190E09D
:102630000E94671621102A9421E0821A91088114C1
:10264000910471F7E8C0843611F0893641F5F8013C
:1026500037FE07C060817181828193810C5F1F4FBB
:1026600008C060817181072E000C880B990B0E5FEA
:102670001F4FF32DFF763F2E97FF09C09095809551
:10268000709561957F4F8F4F9F4FF0683F2E2AE0E6
:1026900030E0A3010E94A316882E861845C0853716
:1026A00031F4232D2F7EB22E2AE030E025C0932D69
:1026B000997FB92E8F36C1F018F4883579F0B5C0FE
:1026C000803719F0883721F0B0C0E92FE061BE2EC5
:1026D000B4FE0DC0FB2DF460BF2E09C034FE0AC04D
:1026E000292F2660B22E06C028E030E005C020E188
:1026F00030E002C020E132E0F801B7FE07C060819F
:102700007181828193810C5F1F4F06C0608171814E
:1027100080E090E00E5F1F4FA3010E94A316882E59
:102720008618FB2DFF773F2E36FE0DC0232D2E7F02
:10273000A22E891458F434FE0BC032FC09C0832D3C
:102740008E7EA82E05C0B82CA32C03C0B82C01C0C7
:10275000B92CA4FE0FC0FE01E80DF11D808180336D
:1027600021F49A2D997EA92E09C0A2FE06C0B39429
:10277000B39404C08A2D867809F0B394A3FC11C0E9
:10278000A0FE06C0B21488F4280C922C9B180EC030
:10279000B21460F4B60180E290E00E946716B39430
:1027A000F7CFB21418F42B1802C0982C212CA4FED9
:1027B00010C0B60180E390E00E946716A2FE17C029
:1027C000A1FC03C088E790E002C088E590E0B60174
:1027D0000CC08A2D867859F0A1FE02C08BE201C0A0
:1027E00080E2A7FC8DE2B60190E00E946716891492
:1027F00038F4B60180E390E00E9467169A94F7CF10
:102800008A94F301E80DF11D8081B60190E00E94E9
:1028100067168110F5CF222009F442CEB60180E27E
:1028200090E00E9467162A94F6CFF6018681978180
:1028300002C08FEF9FEF2B96E2E10C941D17A9E0E9
:10284000B0E0E5E2F4E10C9407176A01122FB02E14
:102850002BE3201720F0FF24F394F00E02C02CE3AA
:10286000F22E0F2D27E0AE014F5F5F4F0E947915CA
:10287000BC014981842F8970813031F0E1FC06C0B0
:10288000E0FE06C090E205C09DE203C09BE201C0ED
:1028900090E05E2D507143FF3CC0911102C083E077
:1028A00001C084E0811718F4212F281B01C020E00B
:1028B00051110BC0F601822F30E2882319F03193B9
:1028C0008150FBCFC20ED11C20E0992329F0D60104
:1028D0009C93F60131966F01C6010396E2FE0AC091
:1028E0003EE4D6013C9341E411964C931197129625
:1028F0003C9306C03EE6F601308341E641833283D5
:10290000FC01322F40E2332309F442C0419331509D
:10291000FACF42FF44C0911102C083E001C084E0BD
:10292000811718F4212F281B01C020E051110BC082
:10293000F601822F30E2882319F031938150FBCFCA
:10294000C20ED11C20E0992329F0D6019C93F601F8
:1029500031966F01C6010396E2FE0BC039E4D60141
:102960003C933EE411963C93119736E412963C93C7
:1029700007C039E6F60130833EE6318336E632831E
:10298000FC01322F40E2332319F041933150FBCF49
:10299000FC01E20FF11D10828EEF9FEFA6C021E037
:1029A00030E0911102C020E030E0161617061CF44A
:1029B000FB01319602C0E1E0F0E02E0F3F1FBB208B
:1029C00021F0EB2DF0E0319602C0E0E0F0E02E0FB8
:1029D0003F1FE12FF0E02E173F071CF4121B212FA1
:1029E00001C020E08E2D887159F4F601822F30E26B
:1029F000882319F031938150FBCFC20ED11C20E007
:102A0000992329F0D6019C93F60131966F0151115B
:102A10000BC0F601822F90E3882319F09193815027
:102A2000FBCFC20ED11C20E00F2D060F9A81342F50
:102A3000307144FF03C0913309F40150101624F49F
:102A4000093018F008E001C001E0AB0177FF02C0D7
:102A500040E050E0FB01E41BF50BA1E0B0E0AC0F5F
:102A6000BD1FEA0FFB1F8EE2A82E4B01801A9108B2
:102A70000B2D10E01195019511094F3FBFEF5B073A
:102A800021F4D601AC9211966D01641775072CF0F4
:102A90008416950614F4818101C080E341505109E8
:102AA0003196D60111967D014017510724F0D601C9
:102AB0008C936701E2CF6417750739F4963320F4DD
:102AC000953319F4311101C081E3F6018083F701D8
:102AD000822F90E2882319F091938150FBCFF70168
:102AE000E20FF11D108280E090E02996ECE00C945A
:102AF0002317283008F027E03327DA01990F311D1A
:102B000087FD916000966105710539F432602E5F92
:102B10003D9330E32A95E1F708959F3F30F08038E8
:102B20007105610509F03C5F3C5F3D93913008F011
:102B30008068911DDF93CF931F930F93FF92EF92C5
:102B4000192F987F9695E92F96959695E90FFF276F
:102B5000E053FF4F99273327EE24FF24A701E70115
:102B600005900894079428F4360FE71EF81E491FB5
:102B7000511D660F771F881F991F0694A1F70590B6
:102B8000079428F4E70EF81E491F561FC11D770F42
:102B9000881F991F661F0694A1F70590079428F4D3
:102BA000F80E491F561FC71FD11D880F991F661F9A
:102BB000771F0694A1F70590079420F4490F561F3C
:102BC000C71FD81F990F661F771F881F0694A9F784
:102BD00084911095177041F0D695C79557954795F4
:102BE000F794E7941A95C1F7E6E7F0E0689415903A
:102BF000159135916591959105907FE27395E11856
:102C0000F10A430B560BC90BD009C0F7E10CF11EBA
:102C1000431F561FC91FD01D7EF4703311F48A95CF
:102C2000E6CFE894015030F0080F0AF400270217AD
:102C300008F4202F2395022F7A3328F079E37D932F
:102C40002A95E9F710C07D932A9589F60694979501
:102C50006795379517951794E118F10A430B560BB2
:102C6000C90BD00998F023957E9173957A3308F0BB
:102C700070E37C932013B8F77E9170617D9330F000
:102C8000839571E37D9370E32A95E1F71124EF902A
:102C9000FF900F911F91CF91DF91992787FD90951C
:102CA0000895FC010590615070400110D8F780959F
:102CB00090958E0F9F1F0895FC0161507040019008
:102CC0000110D8F7809590958E0F9F1F08950F9350
:102CD0001F93CF93DF93FB01238121FD03C08FEF6F
:102CE0009FEF2CC022FF16C0468157812481358179
:102CF0004217530744F4A081B1819D012F5F3F4FDC
:102D0000318320838C93268137812F5F3F4F378318
:102D1000268314C08B01EC01FB010084F185E02DBA
:102D20000995892BE1F6D80116968D919C911797FC
:102D3000019617969C938E931697CE01DF91CF91B3
:102D40001F910F910895FA01AA27283051F12031DF
:102D500081F1E8946F936E7F6E5F7F4F8F4F9F4F2F
:102D6000AF4FB1E03ED0B4E03CD0670F781F891F71
:102D70009A1FA11D680F791F8A1F911DA11D6A0F3F
:102D8000711D811D911DA11D20D009F468943F91F2
:102D90002AE0269F11243019305D3193DEF6CF01F1
:102DA0000895462F4770405D4193B3E00FD0C9F7B7
:102DB000F6CF462F4F70405D4A3318F0495D31FD24
:102DC0004052419302D0A9F7EACFB4E0A695979577
:102DD000879577956795BA95C9F70097610571054D
:102DE00008959B01AC010A2E069457954795379597
:102DF0002795BA95C9F7620F731F841F951FA01DF1
:102E000008952F923F924F925F926F927F928F928E
:102E10009F92AF92BF92CF92DF92EF92FF920F9369
:102E20001F93CF93DF93CDB7DEB7CA1BDB0B0FB673
:102E3000F894DEBF0FBECDBF09942A883988488830
:102E40005F846E847D848C849B84AA84B984C884C6
:102E5000DF80EE80FD800C811B81AA81B981CE0FBD
:102E6000D11D0FB6F894DEBF0FBECDBFED010895A2
:042E7000F894FFCF04
:102E740001FF01FF2020202000253032643A253054
:102E840032642D2D253032643A25303264003C4FB3
:102E94004E3E003C4F463E00504F44455341564140
:102EA4004E4A4520534154410020205550414C493D
:102EB4002D2D554741534920200020204A45444E9A
:102EC4004F4B5241544E4F3A202000253564560052
:102ED4006B5720006B576800253032643A25303236
:102EE400643A25303264002534642020000A004A04
:102EF40045444E4F4B5241544E4F00000000005089
:102F04004F4445534920504552494F4420200050D6
:102F14004F4445534920534154202020202000424F
:102F2400524F4A494C4F202020200000000000004E
:00000001FF
