S01E000074696D65725F6B77685F6D657461725F626F696C65722E73726563E8
S11300000C94B8000C94D5000C94D5000C94D50035
S11300100C94D70B0C94D5000C94D5000C94D500FB
S11300200C94D5000C94D5000C94D5000C94D500F8
S11300300C94D5000C94D5000C94550D0C94D5005B
S11300400C94D5000C94D5000C94BA0D0C94D500E6
S11300500C94AE0D0C94E4000C94D5000C94D500D3
S11300600C94D5000C94D50021067306A006320723
S11300701C084209670A00407A10F35A00A0724E25
S113008018090010A5D4E80000E87648170000E439
S11300900B54020000CA9A3B000000E1F505000081
S11300A080969800000040420F000000A0860100E6
S11300B00000102700000000E803000000006400B6
S11300C0000000000A000000000001000000000021
S11300D02C76D888DC674F0823DFC1DFAE59E1B145
S11300E0B796E5E3E453C63AE651997696E8E6C254
S11300F08426EB898C9B62ED407C6FFCEFBC9C9F5B
S113010040F2BAA56FA5F490055A2AF75C936B6C7C
S1130110F9676DC11BFCE0E40D47FEF520E6B50070
S1130120D0ED902E0300943577050080841E0800DE
S113013000204E0A000000C80C333333330F986E8E
S113014012831141EF8D2114893BE65516CFFEE64B
S1130150DB18D1844B381BF77C1D901DA4BBE42411
S1130160203284725E228100C9F124ECA1E53D278E
S113017011241FBECFEFD8E0DEBFCDBF11E0A0E059
S1130180B1E0EEE9FBE202C005900D92A03CB1079C
S1130190D9F722E0A0ECB1E001C01D92A335B2076B
S11301A0E1F70E94830A0C94CD150C940000109280
S11301B0640080EC80937C008EEE80937A00109231
S11301C07B001092C10108951F920F920FB60F92F7
S11301D011248F9381E08093C0018F910F900FBE03
S11301E00F901F9018958F929F92AF92BF92CF92CB
S11301F0DF92EF92FF928091C001882309F485C0B9
S11302001092C0018091C101811109C080917800D0
S1130210909179009093D3018093D2010AC08130E8
S113022041F480917800909179009093D10180936A
S1130230D0016091D2017091D30180E090E00E94DE
S1130240900F2AE939E949E650E40E94EF0E0E9432
S1130250610F6B017C017093CF016093CE016091BB
S1130260D0017091D10180E090E00E94900F24E1D0
S11302703EEA43E252E40E94EF0E4B015C016093BC
S1130280CA017093CB018093CC019093CD01B60148
S113029080E090E00E94900FA50194010E941E103E
S11302A020E030E04AE754E40E94EF0E6093C60178
S11302B07093C7018093C8019093C901EAE7F0E005
S11302C080818F7780838091C1018F5F8093C1018A
S11302D0823018F01092C10105C0882319F08130D2
S11302E039F00EC0ECE7F0E080818C7F808308C099
S11302F0ECE7F0E080818D7F808380818160808362
S1130300EAE7F0E08081806C8083FF90EF90DF90DB
S1130310CF90BF90AF909F908F900895F999FECFA2
S113032092BD81BDF89A80B50895F999FECF92BD2A
S113033081BD60BDF894FA9AF99A78940895109260
S1130340B90088E48093B8000895CF93DF93ECEB71
S1130350F0E024EAA9EBB0E0CBEBD0E034E844E9E8
S1130360208390819923ECF79C91987F983011F029
S11303709031B1F78883308390819923ECF79C9175
S1130380987F903211F0983529F44083908194FD40
S1130390FDCFE6CFDF91CF91089584E98093BC002F
S11303A0ECEBF0E0808184FDFDCF08958093BB00E9
S11303B084E88093BC00ECEBF0E080818823ECF7C8
S11303C09091B900987F81E0983209F480E0089513
S11303D084E88093BC00ECEBF0E080818823ECF7A8
S11303E08091BB000895CF93C82F862F0E94A5014A
S11303F08C2F0E94D6010E94CD01CF9108950F93B6
S11304001F93CF93DF93FC01062F172FEA012111CD
S113041028C0808199EE980F963018F08F5F808302
S113042001C0108280811F928F9389E191E09F9394
S11304308F931F930F930E94B110888161E08150C4
S11304400E94D703802F912F0E94E00361E08881EE
S11304500E94D7030F900F900F900F900F900F9062
S113046028C0213031F5808181508A3F10F4808387
S113047002C087E1808380811F928F9389E191E09C
S11304809F938F931F930F930E94B110888161E013
S113049081500E94D703802F912F0E94E00361E0D6
S11304A088810E94D7030F900F900F900F900F90A8
S11304B00F90DF91CF911F910F9108950F931F9388
S11304C0CF93DF93FC01062F172FEA01211128C0D7
S11304D0808195EC980F953018F08F5F808301C070
S11304E0108280811F928F9389E191E09F938F9373
S11304F01F930F930E94B110888161E081500E9484
S1130500D703802F912F0E94E00361E088810E942D
S1130510D7030F900F900F900F900F900F9028C05B
S1130520213031F5808181508A3F10F4808302C0EC
S11305308BE3808380811F928F9389E191E09F9365
S11305408F931F930F930E94B110888161E08150B3
S11305500E94D703802F912F0E94E00361E08881DD
S11305600E94D7030F900F900F900F900F900F9051
S1130570DF91CF911F910F9108950F931F93CF9304
S1130580DF93FC01062F172FEA01211128C0808177
S113059095EC980F953018F08F5F808301C010821E
S11305A080811F928F9389E191E09F938F931F9392
S11305B00F930E94B110888161E081500E94D7039B
S11305C0802F912F0E94E00361E088810E94D7036D
S11305D00F900F900F900F900F900F9028C0213024
S11305E031F5808181508A3F10F4808302C08BE30F
S11305F0808380811F928F9389E191E09F938F93F1
S11306001F930F930E94B110888161E081500E9472
S1130610D703802F912F0E94E00361E088810E941C
S1130620D7030F900F900F900F900F900F90DF91C2
S1130630CF911F910F910895CF93C82F8091EC0112
S113064084608093EC016EE40E94F30187EC90E0F7
S11306500197F1F700C00000C295C07F8091EC01C2
S11306606EE48C2B0E94F3018091EC018B7F8093CC
S1130670EC016EE40E94F30187EC90E00197F1F73E
S113068000C00000CF910895CF93DF93C82FD82FD7
S1130690D295DF70611109C08091EC018E7F809347
S11306A0EC016EE40E94F30108C08091EC018160CA
S11306B08093EC016EE40E94F3018D2F0E941C03D1
S11306C08C2F0E941C03DF91CF910895CF93C82FE4
S11306D08091EC0181608093EC016EE40E94F3014F
S11306E08C2F82958F700E941C038C2F0E941C03F8
S11306F0CF9108951092EC010E949F018FE59AEE2C
S11307000197F1F700C0000083E00E941C038FE70B
S11307109EE30197F1F700C0000083E00E941C03F0
S11307208FE891E00197F1F700C0000083E00E9498
S11307301C038FE99FE00197F1F700C0000082E0FD
S11307400E941C038FE99FE00197F1F700C00000AD
S113075060E088E20E9444038FE99FE00197F1F78B
S113076000C0000060E08CE00E9444038FE99FE039
S11307700197F1F700C0000060E086E00E944403A6
S11307808FE99FE00197F1F700C000008091EC0130
S113079088608093EC016EE40E94F3018091EC0187
S11307A08D7F8093EC016EE40E94F301089590E440
S11307B0699F800D112460E080680E9444030895BD
S11307C00F931F93CF93FC018081882359F08F01ED
S11307D0C0E00E946603CF5FF801EC0FF11D808139
S11307E08111F7CFCF911F910F910895882329F09C
S11307F060E08FE00E944403089560E08CE00E9472
S113080044030895FA01DC0112962C91129754E6E0
S113081011968C9190E0529F800D911D1124DB0163
S113082012962C91129711966C9170E0529F600D64
S1130830711D11244281218130E0549F200D311D0E
S113084011248617970768F02817390720F02833F2
S1130850B9E03B0778F081E02617370770F080E0B5
S113086008952817390740F081E02617370728F044
S113087080E0089581E0089580E0089560E080E0DC
S11308800E94D70384E091E00E94E00388E092E0B4
S11308900E94E00384E091E00E94E00361E080E0D4
S11308A00E94D70386E091E00E94E003E7E3F2E0D0
S11308B081811F928F9382811F928F93E5E2F2E0F0
S11308C081811F928F9382811F928F9389E091E09F
S11308D09F938F9388E092E09F938F930E94B1102F
S11308E088E092E00E94E00386E091E00E94E00349
S11308F08DB79EB70C960FB6F8949EBF0FBE8DBFF2
S11309000895CF93DF93EC0160E080E00E94D70369
S113091086E291E00E94E00361E080E00E94D70358
S113092087E091E00E94E00360E081E00E94D70349
S11309308091D70120E18202C001112481589E4F89
S11309400E94E0038091D701811115C08091D501E7
S1130950813049F460E08CE00E94D7038EE191E09D
S11309600E94E00308C060E08CE00E94D70383E2A9
S113097091E00E94E00361E081E00E94D703888156
S113098099818330910511F48FEF9FEF99838883C8
S113099082959295907F9827807F982781579E4FC4
S11309A00E94E003888199810196A9F48091D50180
S11309B0813049F461E08CE00E94D7038EE191E03C
S11309C00E94E00308C061E08CE00E94D70383E248
S11309D091E00E94E003DF91CF91089560E080E010
S11309E00E94D70388E291E00E94E00361E080E086
S11309F00E94D70384E091E00E94E00388E092E043
S1130A000E94E00384E091E00E94E00361E08091B1
S1130A10D6010E94D70381E00E94F6030895ECE119
S1130A20F2E081811F928F9382811F928F93EEE275
S1130A30F2E081811F928F9382811F928F9389E0CC
S1130A4091E09F938F9388E092E09F938F930E940D
S1130A50B11060E080E00E94D70389E391E00E9436
S1130A60E00361E080E00E94D70386E091E00E9409
S1130A70E00388E092E00E94E00386E091E00E94B7
S1130A80E00361E08091D6010E94D70381E00E94D7
S1130A90F6038DB79EB70C960FB6F8949EBF0FBEA3
S1130AA08DBF0895ECE1F2E081811F928F938281E2
S1130AB01F928F93EEE2F2E081811F928F938281E5
S1130AC01F928F9389E091E09F938F9388E092E047
S1130AD09F938F930E94B11060E080E00E94D7033F
S1130AE08AE491E00E94E00361E080E00E94D70381
S1130AF086E091E00E94E00388E092E00E94E00337
S1130B0086E091E00E94E00361E08091D6010E94BA
S1130B10D70381E00E94F6038DB79EB70C960FB6FB
S1130B20F8949EBF0FBE8DBF08950F931F938091BD
S1130B30CF018F938091CE018F938BE591E09F93AA
S1130B408F9388E092E09F938F930E94B11060E0AE
S1130B5080E00E94D70388E092E00E94E00385E0F1
S1130B6091E00E94E0036091C6017091C7018091F9
S1130B70C8019091C90108E012E022E030E044E0AD
S1130B8050E00E94911060E089E00E94D703C80100
S1130B900E94E00380E691E00E94E0036091CA01B4
S1130BA07091CB018091CC019091CD0121E030E096
S1130BB045E050E00E94911061E080E00E94D7037C
S1130BC0C8010E94E00387E391E00E94E00385E00E
S1130BD091E00E94E0036091C2017091C301809191
S1130BE0C4019091C50122E030E045E050E00E944C
S1130BF0911061E088E00E94D703C8010E94E003DD
S1130C0084E691E00E94E0030F900F900F900F9004
S1130C100F900F901F910F9108950F931F93CF93EF
S1130C20DF9300D0CDB7DEB7E091D8018E2F90E0EE
S1130C308730910508F060C4FC01EC5CFF4F0C9414
S1130C408B1080910001882331F0109200011092E2
S1130C50E1011092E0018091E0019091E101893578
S1130C609B4128F081E0809300018093D80180911A
S1130C70DB01882349F11092DB0100E028E432E033
S1130C8040E452E061E472E082E492E00E94DB0C12
S1130C90E0E4F2E080811F928F9381811F928F9311
S1130CA082811F928F9388E691E09F938F9388E0CF
S1130CB092E09F938F930E94B1100E943E040FB65E
S1130CC0F894DEBF0FBECDBF65E0809101010E94A4
S1130CD0200C882309F410C481E08093000182E091
S1130CE08093D80109C480910001882331F01092C7
S1130CF000011092E1011092E0018091E0019091D5
S1130D00E101813A9F4028F081E080930001109234
S1130D10D8018091DF01882321F01092DF010E9425
S1130D20950565E0809101010E94200C882309F457
S1130D30E3C381E08093000182E08093D801DCC3A7
S1130D408091D701082E000C990B9A838983CE01D8
S1130D5001960E94810463E0809101010E94200CAD
S1130D60882359F08091D7018F5F84301CF48093DD
S1130D70D701C2C31092D701BFC362E080910101C1
S1130D800E94200C882359F08091D70181501AF0D9
S1130D908093D701B1C383E08093D701ADC3809121
S1130DA0D701823059F465E0809101010E94200C42
S1130DB0882321F083E08093D8019EC38091D701DA
S1130DC0813059F465E0809101010E94200C882350
S1130DD021F084E08093D8018FC38091D7018111E1
S1130DE025C065E0809101010E94200C882321F038
S1130DF085E08093D80180C38091D701811116C00A
S1130E0060E0809101010E94200C811107C061E023
S1130E10809101010E94200C882341F081E090918F
S1130E20D501911180E08093D50166C38091D701EB
S1130E30833059F465E0809101010E94200C8823DD
S1130E4021F086E08093D80157C364E080910101CA
S1130E500E94200C882309F44FC31092D7011092EA
S1130E60D8014AC380910001882351F110920001F6
S1130E7089E0E0E4F2E0AFEFB1E001900D928A95F1
S1130E80E1F7EFEFF1E080811F928F9381811F9250
S1130E908F9382811F928F9388E691E09F938F9323
S1130EA088E092E09F938F930E94B11085E0809335
S1130EB0D6010E94EE040FB6F894DEBF0FBECDBF7C
S1130EC061E0809101010E94200C882389F08091C7
S1130ED0D6018D5F8C301CF48093D60103C08BE067
S1130EE08093D60161E08091D6010E94D70304C3A8
S1130EF060E0809101010E94200C882389F0809198
S1130F00D601835085301CF08093D60103C085E060
S1130F108093D60161E08091D6010E94D703ECC290
S1130F2062E0809101010E94200C882339F18091B4
S1130F30D601853051F420E046ED51E068E072E0DE
S1130F4081E092E00E94FF01D7C2883051F420E092
S1130F5046ED51E068E072E080E092E00E945E02BB
S1130F60CBC28B3009F0C8C220E046ED51E068E006
S1130F7072E08FEF91E00E94BD02BEC263E08091F7
S1130F8001010E94200C882339F18091D60185301B
S1130F9051F421E046ED51E068E072E081E092E036
S1130FA00E94FF01A9C2883051F421E046ED51E0CE
S1130FB068E072E080E092E00E945E029DC28B30A5
S1130FC009F09AC221E046ED51E068E072E08FEF4B
S1130FD091E00E94BD0290C265E0809101010E94EF
S1130FE0200C8823A9F0EFEFF1E000E020E040813D
S1130FF0618182810E94190D81E080930001109229
S1131000D60180E00E94F60382E08093D80174C286
S113101064E0809101010E94200C882309F46CC2D1
S113102081E0809300011092D60180E00E94F603D3
S113103082E08093D80160C2809100018823C9F0C6
S11310401092000189E0E5E2F2E0AEE2B2E0019044
S11310500D928A95E1F789E0E7E3F2E0ACE1B2E0D2
S113106001900D928A95E1F783E08093D6010E9466
S11310700F0561E0809101010E94200C8823C9F0D2
S11310808091D6019CEF980F933020F48AE08093EE
S1131090D60109C08D5F8E301CF48093D60103C045
S11310A08DE08093D60161E08091D6010E94D70340
S11310B023C260E0809101010E94200C8823C9F0C2
S11310C08091D60196EF980F933020F486E08093B8
S11310D0D60109C0835083301CF08093D60103C02D
S11310E083E08093D60161E08091D6010E94D7030A
S11310F003C262E0809101010E94200C882399F1CF
S11311008091D601833051F420E046ED51E068E04F
S113111072E080E392E00E94FF01EEC1863051F458
S113112020E046ED51E068E072E08FE292E00E9438
S11311305E02E2C18A3051F420E046ED51E068E0FD
S113114072E08EE192E00E94FF01D6C18D3009F079
S1131150D3C120E046ED51E068E072E08DE192E019
S11311600E945E02C9C163E0809101010E94200CCB
S1131170882399F18091D601833051F421E046ED22
S113118051E068E072E080E392E00E94FF01B4C1A4
S1131190863051F421E046ED51E068E072E08FE2E0
S11311A092E00E945E02A8C18A3051F421E046ED2B
S11311B051E068E072E08EE192E00E94FF019CC180
S11311C08D3009F099C121E046ED51E068E072E00C
S11311D08DE192E00E945E028FC165E08091010181
S11311E00E94200C8823D1F189E0EEE2F2E0A5E22E
S11311F0B2E001900D928A95E1F789E0ECE1F2E02A
S1131200A7E3B2E001900D928A95E1F705E212E0BE
S1131210F801628180E090E00E949501F80161810B
S113122081E090E00E94950107E312E0F8016281F9
S113123082E090E00E949501F801618183E090E0F2
S11312400E94950181E0809300011092D60180E014
S11312500E94F60382E08093D8014EC164E080913D
S113126001010E94200C882309F446C181E0809387
S113127000011092D60180E00E94F60382E0809380
S1131280D8013AC1809100018823C9F0109200016D
S113129089E0E6EFF1E0AEE2B2E001900D928A95CA
S11312A0E1F789E0EDEEF1E0ACE1B2E001900D92FE
S11312B08A95E1F783E08093D6010E94520561E0AC
S11312C0809101010E94200C8823C9F08091D601ED
S11312D09CEF980F933020F48AE08093D60109C0E4
S11312E08D5F8E301CF48093D60103C08DE0809313
S11312F0D60161E08091D6010E94D703FDC060E071
S1131300809101010E94200C8823C9F08091D601AC
S113131096EF980F933020F486E08093D60109C0AD
S1131320835083301CF08093D60103C083E0809304
S1131330D60161E08091D6010E94D703DDC062E04E
S1131340809101010E94200C882399F18091D6019B
S1131350833051F420E046ED51E068E072E080E330
S113136092E00E94FF01C8C0863051F420E046EDAF
S113137051E068E072E08FE292E00E945E02BCC03D
S11313808A3051F420E046ED51E068E072E08EE1ED
S113139092E00E94FF01B0C08D3009F0ADC020E0A2
S11313A046ED51E068E072E08DE192E00E945E0259
S11313B0A3C063E0809101010E94200C882399F16D
S11313C08091D601833051F421E046ED51E068E08C
S11313D072E080E392E00E94FF018EC0863051F4F7
S11313E021E046ED51E068E072E08FE292E00E9475
S11313F05E0282C08A3051F421E046ED51E068E09B
S113140072E08EE192E00E94FF0176C08D3009F017
S113141073C021E046ED51E068E072E08DE192E0B6
S11314200E945E0269C065E0809101010E94200C67
S11314308823D1F189E0EEE2F2E0A6EFB1E0019079
S11314400D928A95E1F789E0ECE1F2E0ADEEB1E0CE
S113145001900D928A95E1F706EF11E0F80162819F
S113146084E090E00E949501F801618185E090E0BC
S11314700E9495010DEE11E0F801628186E090E092
S11314800E949501F801618187E090E00E94950136
S113149081E0809300011092D60180E00E94F6035F
S11314A082E08093D80128C064E0809101010E9409
S11314B0200C882309F181E0809300011092D60169
S11314C080E00E94F60382E08093D80115C08091E9
S11314D0DF01882321F01092DF010E94950564E06A
S11314E0809101010E94200C882331F081E08093D7
S11314F0000182E08093D8010F900F90DF91CF918B
S11315001F910F9108950E944C0D0E949F010E940B
S11315107A030E94D70060E271EA87E090E00E94BB
S1131520E50D0E94CE0C0E94CB0B0E94EA0B259A7B
S1131530249A789480E090E00E948E01C5E2D2E083
S11315408A8381E090E00E948E01898382E090E0AA
S11315500E948E01C7E3D2E08A8383E090E00E9478
S11315608E01898384E090E00E948E01C6EFD1E071
S11315708A8385E090E00E948E01898386E090E072
S11315800E948E01CDEED1E08A8387E090E00E9434
S11315908E01898389E0E5E2F2E0AEE2B2E00190F7
S11315A00D928A95E1F789E0E7E3F2E0ACE1B2E07D
S11315B001900D928A95E1F70F2EF7E7EF2EF1E0F7
S11315C0FF2EF02DC8E0D2E0DD24D3940E94F70B67
S11315D0809301010E94F3008091D3018F93809145
S11315E0D2018F93FF92EF92DF93CF930E94B110B9
S11315F0CE010E946F0E8091D1018F938091D00112
S11316008F93FF92EF92DF93CF930E94B110CE019C
S11316100E946F0E8091CF018F938091CE018F93A2
S1131620FF92EF92DF93CF930E94B110CE010E94FC
S11316306F0E6091CA017091CB018091CC019091A1
S1131640CD018E0121E030E044E050E00E94911091
S1131650CE010E946F0E86E091E00E946F0E6091B1
S1131660C6017091C7018091C8019091C90122E01F
S113167030E044E050E00E949110CE010E946F0ED1
S113168086E091E00E946F0E6091C2017091C301E7
S11316908091C4019091C50122E030E045E050E022
S11316A00E949110CE010E946F0E8DE791E00E947E
S11316B06F0E8091DA012DB73EB72E5E3F4F0FB605
S11316C0F8943EBF0FBE2DBF882309F461C0109269
S11316D0DA0100E028E432E040E452E061E472E040
S11316E082E492E00E94DB0C20E030E041E655E425
S11316F06091C6017091C7018091C8019091C901A0
S11317000E94EF0E9B01AC016091C2017091C30174
S11317108091C4019091C5010E94830E6093C2011F
S11317207093C3018093C4019093C5018091D50146
S11317308130D1F440E452E06DEE71E086EF91E047
S11317400E940204882329F0D092D901D092D401B6
S11317500DC08091D401882349F01092D9011092D0
S1131760D5011092D40102C01092D90140E452E094
S113177067E372E085E292E00E9402049091D9014D
S1131780892B8093D901882311F02D9A01C02D98BB
S11317900E940D061BCFE8E6F0E080818260808322
S11317A0ECE6F0E08081886080833B9808951F9286
S11317B00F920FB60F9211248F93339B05C081E0D3
S11317C08093DB018093DA018F910F900FBE0F900D
S11317D01F9018958AB18F708AB984B18C7F84B9AF
S11317E08BB1806F8BB985B1836085B90895809181
S11317F0E701882369F01092E70193B129B130E140
S1131800939FC0011124922F92959F70892B01C040
S11318108FEF9091E801992381F01092E80193B140
S113182049B150E1959F90011124942F92959F7096
S1131830292B821302C08093030180910301089530
S1131840282F30E020953095E62FA901062E02C0FE
S1131850559547950A94E2F740FF17C09091DD0132
S1131860911113C091E09093DD016093DC018095A8
S113187041E050E0062E02C0440F551F0A94E2F7DF
S1131880842309F045C081E008959091DC01E92F9B
S1131890809541E050E0092E02C0440F551F0A9480
S11318A0E2F7842319F18EEF890F823008F569136A
S11318B021C080E001C081E090910201913031F4B7
S11318C0109202011092E3011092E2012091E201D0
S11318D03091E3012039314000F19091E9019923DD
S11318E0E1F01092E90191E08927089580E003C0B6
S11318F080E001C080E002C035952795EA95E2F7C3
S113190020FD0BC01092DD0191E090930201089537
S11319106250623080F281E0EECF0895982F929564
S11319209F70990F292F220F220F920F8F70890F0A
S113193008959DEC899F912D1124969596959695E1
S113194020E1929FA0011124990F292F220F220F29
S1131950920F891B8F70842B0895CF93C82F80ED2D
S11319600E94A5018C2F0E94D60181ED0E94A50141
S11319700E94E801CF910895CF93DF93D82FC62F0B
S113198080ED0E94A5018D2F0E94D6018C2F0E940C
S1131990D6010E94CD01DF91CF91089560E08EE0E1
S11319A00E94BC0C60E08FE00E94BC0C68EE80E1F9
S11319B00E94BC0C0895AF92BF92CF92DF92EF9237
S11319C0FF920F93CF93DF93EC017B016A015901DE
S11319D080E00E94AD0C0E948E0CF601808381E0B1
S11319E00E94AD0C0E948E0CF7018083013081F4BB
S11319F082E00E94AD0C85FB882780F9F501808385
S1131A0082E00E94AD0C8F710E948E0C888307C007
S1131A1082E00E94AD0C8F730E948E0C8883DF914C
S1131A20CF910F91FF90EF90DF90CF90BF90AF9048
S1131A3008950F931F93CF93DF93D82FC62F842F2E
S1131A40122F0E94990C682F80E00E94BC0C8C2FEE
S1131A500E94990C682F81E00E94BC0C013079F43B
S1131A60113011F0C0E401C0C0E68D2F0E94990C22
S1131A708F71682F6C2B82E00E94BC0C08C08D2FE4
S1131A800E94990C682F6F7382E00E94BC0CDF9156
S1131A90CF911F910F91089582E084BD93E095BD8D
S1131AA099EF97BD80936E0008951F920F920FB621
S1131AB00F9211248F939F9381E08093EA01809188
S1131AC0E6018F5F8093E6018091E4018F5F80934C
S1131AD0E4018091E5018F5F8093E5018091E2014B
S1131AE09091E30101969093E3018093E201809148
S1131AF0E0019091E10101969093E1018093E0016E
S1131B008091DE018F5F8093DE018091E60184364F
S1131B1029F41092E60181E08093E9018091E401C7
S1131B20833029F41092E40181E08093E7018091ED
S1131B30E501863029F41092E50181E08093E80103
S1131B408091DE01843619F481E08093DF019F9156
S1131B508F910F900FBE0F901F9018951F920F92A8
S1131B600FB60F92112410924A020F900FBE0F90DD
S1131B701F9018951F920F920FB60F9211248F93F6
S1131B80EF93FF938091C600809349028091EB010B
S1131B90883098F4E091EB01F0E080914902E55B34
S1131BA0FD4F80838091EB018F5F8093EB01E09187
S1131BB0EB01F0E0E55BFD4F1082FF91EF918F9117
S1131BC00F900FBE0F901F90189522E02093C00035
S1131BD028ED2093C10026E02093C20061152CE279
S1131BE0720721E08207910509F451C0C8F46034FA
S1131BF028E3720781059105A9F130F46038754234
S1131C008105910541F164C061152BE472078105DA
S1131C10910579F1611576498105910589F158C0DD
S1131C20603221EA720727E082079105F1F130F46E
S1131C306039704D8340910589F14AC0603422E4D3
S1131C4072072FE082079105B9F1603874488E411C
S1131C509105C9F13DC08FEC90E09093C50080934D
S1131C60C40008958AE890E09093C5008093C4006E
S1131C70089587E690E09093C5008093C40008958A
S1131C8083E390E09093C5008093C400089589E1B4
S1131C9090E09093C5008093C400089587E090E09D
S1131CA09093C5008093C400089583E090E09093DE
S1131CB0C5008093C400089581E090E09093C5002E
S1131CC08093C40008951092C5001092C400089532
S1131CD08FEC90E09093C5008093C4000895FC01BC
S1131CE09081992371F03196A6ECB0E081E09C9349
S1131CF080934A0290914A029111FCCF91919111E3
S1131D00F6CF08955058BB27AA270E949A0E0C9428
S1131D10E40F0E94D60F38F00E94DD0F20F039F452
S1131D209F3F19F426F40C94D30F0EF4E095E7FBCF
S1131D300C94CD0FE92F0E94F50F58F3BA176207E0
S1131D4073078407950720F079F4A6F50C9417100F
S1131D500EF4E0950B2EBA2FA02D0B01B9019001C2
S1131D600C01CA01A0011124FF27591B99F0593F06
S1131D7050F4503E68F11A16F040A22F232F342F4E
S1131D804427585FF3CF469537952795A795F0409C
S1131D905395C9F77EF41F16BA0B620B730B840BB1
S1131DA0BAF09150A1F0FF0FBB1F661F771F881F69
S1131DB0C2F70EC0BA0F621F731F841F48F48795C1
S1131DC077956795B795F7959E3F08F0B0CF9395B3
S1131DD0880F08F09927EE0F9795879508950E942C
S1131DE0030F0C94E40F0E94DD0F58F00E94D60FED
S1131DF040F029F45F3F29F00C94CD0F51110C945D
S1131E0018100C94D30F0E94F50F68F39923B1F3C3
S1131E10552391F3951B550BBB27AA27621773070C
S1131E20840738F09F5F5F4F220F331F441FAA1FA0
S1131E30A9F335D00E2E3AF0E0E832D0915050405C
S1131E40E695001CCAF72BD0FE2F29D0660F771F0A
S1131E50881FBB1F261737074807AB07B0E809F0F0
S1131E60BB0B802DBF01FF2793585F4F3AF09E3F75
S1131E70510578F00C94CD0F0C9418105F3FE4F3E7
S1131E80983ED4F3869577956795B795F7959F5FB8
S1131E90C9F7880F911D9695879597F90895E1E004
S1131EA0660F771F881FBB1F621773078407BA0763
S1131EB020F0621B730B840BBA0BEE1F88F7E095BE
S1131EC008950E94FD0F88F09F5798F0B92F992725
S1131ED0B751B0F0E1F0660F771F881F991F1AF011
S1131EE0BA95C9F714C0B13091F00E941710B1E04F
S1131EF008950C941710672F782F8827B85F39F04E
S1131F00B93FCCF3869577956795B395D9F73EF4A9
S1131F1090958095709561957F4F8F4F9F4F089551
S1131F20E89409C097FB3EF490958095709561956F
S1131F307F4F8F4F9F4F9923A9F0F92F96E9BB2725
S1131F409395F695879577956795B795F111F8CFA1
S1131F50FAF4BB0F11F460FF1BC06F5F7F4F8F4F0C
S1131F609F4F16C0882311F096E911C0772321F002
S1131F709EE8872F762F05C0662371F096E8862F9A
S1131F8070E060E02AF09A95660F771F881FDAF7F1
S1131F90880F9695879597F9089597F99F6780E834
S1131FA070E060E008959FEF80EC089500240A94A7
S1131FB01616170618060906089500240A94121620
S1131FC01306140605060895092E0394000C11F453
S1131FD0882352F0BB0F40F4BF2B11F460FF04C000
S1131FE06F5F7F4F8F4F9F4F089557FD9058440F59
S1131FF0551F59F05F3F71F04795880F97FB991F64
S113200061F09F3F79F08795089512161306140620
S1132010551FF2CF4695F1DF08C0161617061806AD
S1132020991FF1CF86957105610508940895E89488
S1132030BB2766277727CB0197F908950E943110B3
S11320400C94E40F0E94D60F38F00E94DD0F20F0AC
S1132050952311F00C94CD0F0C94D30F11240C94F0
S113206018100E94F50F70F3959FC1F3950F50E07F
S1132070551F629FF001729FBB27F00DB11D639F36
S1132080AA27F00DB11DAA1F649F6627B00DA11DDC
S1132090661F829F2227B00DA11D621F739FB00D82
S11320A0A11D621F839FA00D611D221F749F3327F2
S11320B0A00D611D231F849F600D211D822F762F8B
S11320C06A2F11249F5750409AF0F1F088234AF068
S11320D0EE0FFF1FBB1F661F771F881F91505040D4
S11320E0A9F79E3F510580F00C94CD0F0C94181065
S11320F05F3FE4F3983ED4F3869577956795B7955B
S1132100F795E7959F5FC1F7FE2B880F911D969574
S1132110879597F90895EE0FFF1F0590F491E02D30
S11321200994EF920F931F93CF93DF93E80147FD38
S113213002C034E001C034E1042E000C550B57FFFB
S113214003C0519541955109E32E022F242FAE016E
S11321500E94B412CE01DF91CF911F910F91EF90A5
S11321600895AEE0B0E0E7EBF0E10C94A4150D891E
S11321701E8986E08C831A8309838FEF9FE79E83F1
S11321808D83AE01475E5F4F6F89788DCE010196D6
S11321900E94D310EF81F885E00FF11F10822E9674
S11321A0E4E00C94C015ABE0B0E0E9EDF0E10C9490
S11321B096156C017B018A01FC01178216828381CA
S11321C081FFCCC1CE0101963C01F6019381F70158
S11321D093FD859193FF81917F01882309F4BAC10E
S11321E0853239F493FD859193FF81917F01853286
S11321F029F4B60190E00E94FC14E7CF912C212C25
S1132200312CFFE1F315D8F08B3279F038F48032B9
S113221079F08332A1F4232D20611DC08D3261F049
S1132220803369F4232D216016C0832D8260382EFB
S1132230E32DE4603E2E2AC0F32DF8601DC037FC68
S11322402DC020ED280F2A3040F08E32B9F436FC30
S113225081C1232D2064322E19C036FE06C08AE0C7
S1132260989E200D1124922E11C0EAE02E9E200D7E
S11322701124222EF32DF0623F2E08C08C3621F457
S1132280832D8068382E02C0883641F4F70193FD0F
S1132290859193FF81917F018111B3CF982F9F7D09
S11322A09554933028F40C5F1F4F9FE399830DC01E
S11322B0833631F0833771F0833509F059C021C07A
S11322C0F801808189830E5F1F4F88248394912CA9
S11322D0530113C02801F2E04F0E511CF801A080F5
S11322E0B18036FE03C0692D70E002C06FEF7FEF4E
S11322F0C5010E94F1144C018201F32DFF773F2E9A
S113230016C0280122E0420E511CF801A080B180C1
S113231036FE03C0692D70E002C06FEF7FEFC50188
S11323200E94E6144C01F32DF0683F2E820133FC29
S11323301BC0822D90E088169906B0F4B60180E2A5
S113234090E00E94FC142A94F4CFF50137FC8591A7
S113235037FE81915F01B60190E00E94FC142110C8
S11323602A9421E0821A91088114910471F7E8C03B
S1132370843611F0893641F5F80137FE07C06081D3
S11323807181828193810C5F1F4F08C060817181CC
S1132390072E000C880B990B0E5F1F4FF32DFF7651
S11323A03F2E97FF09C090958095709561957F4F5A
S11323B08F4F9F4FF0683F2E2AE030E0A3010E9428
S11323C03815882E861845C0853731F4232D2F7E85
S11323D0B22E2AE030E025C0932D997FB92E8F3696
S11323E0C1F018F4883579F0B5C0803719F0883712
S11323F021F0B0C0E92FE061BE2EB4FE0DC0FB2D6C
S1132400F460BF2E09C034FE0AC0292F2660B22E04
S113241006C028E030E005C020E130E002C020E141
S113242032E0F801B7FE07C0608171818281938137
S11324300C5F1F4F06C06081718180E090E00E5FE9
S11324401F4FA3010E943815882E8618FB2DFF7795
S11324503F2E36FE0DC0232D2E7FA22E891458F454
S113246034FE0BC032FC09C0832D8E7EA82E05C01D
S1132470B82CA32C03C0B82C01C0B92CA4FE0FC0E7
S1132480FE01E80DF11D8081803321F49A2D997E9F
S1132490A92E09C0A2FE06C0B394B39404C08A2D29
S11324A0867809F0B394A3FC11C0A0FE06C0B21450
S11324B088F4280C922C9B180EC0B21460F4B60158
S11324C080E290E00E94FC14B394F7CFB21418F4A5
S11324D02B1802C0982C212CA4FE10C0B60180E356
S11324E090E00E94FC14A2FE17C0A1FC03C088E780
S11324F090E002C088E590E0B6010CC08A2D867891
S113250059F0A1FE02C08BE201C080E2A7FC8DE27B
S1132510B60190E00E94FC14891438F4B60180E3FB
S113252090E00E94FC149A94F7CF8A94F301E80D8A
S1132530F11D8081B60190E00E94FC148110F5CF5A
S1132540222009F442CEB60180E290E00E94FC14FD
S11325502A94F6CFF6018681978102C08FEF9FEF10
S11325602B96E2E10C94B215A9E0B0E0EAEBF2E1BB
S11325700C949C156A01122FB02E2BE3201720F027
S1132580FF24F394F00E02C02CE3F22E0F2D27E06B
S1132590AE014F5F5F4F0E940E14BC014981842F2E
S11325A08970813031F0E1FC06C0E0FE06C090E2A3
S11325B005C09DE203C09BE201C090E05E2D507116
S11325C043FF3CC0911102C083E001C084E0811745
S11325D018F4212F281B01C020E051110BC0F60173
S11325E0822F30E2882319F031938150FBCFC20E41
S11325F0D11C20E0992329F0D6019C93F601319651
S11326006F01C6010396E2FE0AC03EE4D6013C9384
S113261041E411964C93119712963C9306C03EE602
S1132620F601308341E641833283FC01322F40E2DC
S1132630332309F442C041933150FACF42FF44C0DE
S1132640911102C083E001C084E0811718F4212FA6
S1132650281B01C020E051110BC0F601822F30E28B
S1132660882319F031938150FBCFC20ED11C20E096
S1132670992329F0D6019C93F60131966F01C60186
S11326800396E2FE0BC039E4D6013C933EE4119676
S11326903C93119736E412963C9307C039E6F60151
S11326A030833EE6318336E63283FC01322F40E24A
S11326B0332319F041933150FBCFFC01E20FF11D9C
S11326C010828EEF9FEFA6C021E030E0911102C08E
S11326D020E030E0161617061CF4FB01319602C008
S11326E0E1E0F0E02E0F3F1FBB2021F0EB2DF0E0E6
S11326F0319602C0E0E0F0E02E0F3F1FE12FF0E042
S11327002E173F071CF4121B212F01C020E08E2D31
S1132710887159F4F601822F30E2882319F031933D
S11327208150FBCFC20ED11C20E0992329F0D601A1
S11327309C93F60131966F0151110BC0F601822F63
S113274090E3882319F091938150FBCFC20ED11CE2
S113275020E00F2D060F9A81342F307144FF03C0FF
S1132760913309F40150101624F4093018F008E0EC
S113277001C001E0AB0177FF02C040E050E0FB0183
S1132780E41BF50BA1E0B0E0AC0FBD1FEA0FFB1F8B
S11327908EE2A82E4B01801A91080B2D10E01195A2
S11327A0019511094F3FBFEF5B0721F4D601AC92AD
S11327B011966D01641775072CF08416950614F4B0
S11327C0818101C080E3415051093196D6011196AF
S11327D07D014017510724F0D6018C936701E2CFA5
S11327E06417750739F4963320F4953319F43111CD
S11327F001C081E3F6018083F701822F90E28823F0
S113280019F091938150FBCFF701E20FF11D108273
S113281080E090E02996ECE00C94B815283008F09C
S113282027E03327DA01990F311D87FD9160009667
S11328306105710539F432602E5F3D9330E32A95CA
S1132840E1F708959F3F30F080387105610509F084
S11328503C5F3C5F3D93913008F08068911DDF93AD
S1132860CF931F930F93FF92EF92192F987F969512
S1132870E92F96959695E90FFF27E053FF4F992787
S11328803327EE24FF24A701E70105900894079459
S113289028F4360FE71EF81E491F511D660F771FD7
S11328A0881F991F0694A1F70590079428F4E70E52
S11328B0F81E491F561FC11D770F881F991F661FD9
S11328C00694A1F70590079428F4F80E491F561FA3
S11328D0C71FD11D880F991F661F771F0694A1F784
S11328E00590079420F4490F561FC71FD81F990F4E
S11328F0661F771F881F0694A9F784911095177097
S113290041F0D695C79557954795F794E7941A954E
S1132910C1F7E6E7F0E0689415901591359165915B
S1132920959105907FE27395E118F10A430B560BDC
S1132930C90BD009C0F7E10CF11E431F561FC91F74
S1132940D01D7EF4703311F48A95E6CFE8940150DB
S113295030F0080F0AF40027021708F4202F2395FB
S1132960022F7A3328F079E37D932A95E9F710C092
S11329707D932A9589F606949795679537951795CB
S11329801794E118F10A430B560BC90BD00998F0C0
S113299023957E9173957A3308F070E37C9320132A
S11329A0B8F77E9170617D9330F0839571E37D93E8
S11329B070E32A95E1F71124EF90FF900F911F9196
S11329C0CF91DF91992787FD90950895FC0105909B
S11329D0615070400110D8F7809590958E0F9F1F1D
S11329E00895FC016150704001900110D8F7809562
S11329F090958E0F9F1F08950F931F93CF93DF938E
S1132A00FB01238121FD03C08FEF9FEF2CC022FF28
S1132A1016C046815781248135814217530744F4F7
S1132A20A081B1819D012F5F3F4F318320838C931F
S1132A30268137812F5F3F4F3783268314C08B0154
S1132A40EC01FB010084F185E02D0995892BE1F669
S1132A50D80116968D919C911797019617969C9381
S1132A608E931697CE01DF91CF911F910F91089508
S1132A70FA01AA27283051F1203181F1E8946F93AB
S1132A806E7F6E5F7F4F8F4F9F4FAF4FB1E03ED051
S1132A90B4E03CD0670F781F891F9A1FA11D680FEF
S1132AA0791F8A1F911DA11D6A0F711D811D911D22
S1132AB0A11D20D009F468943F912AE0269F112497
S1132AC03019305D3193DEF6CF010895462F4770FB
S1132AD0405D4193B3E00FD0C9F7F6CF462F4F7056
S1132AE0405D4A3318F0495D31FD4052419302D0B4
S1132AF0A9F7EACFB4E0A69597958795779567955A
S1132B00BA95C9F700976105710508959B01AC0159
S1132B100A2E06945795479537952795BA95C9F780
S1132B20620F731F841F951FA01D08952F923F925B
S1132B304F925F926F927F928F929F92AF92BF92C9
S1132B40CF92DF92EF92FF920F931F93CF93DF9375
S1132B50CDB7DEB7CA1BDB0B0FB6F894DEBF0FBED2
S1132B60CDBF09942A88398848885F846E847D841F
S1132B708C849B84AA84B984C884DF80EE80FD8021
S1132B800C811B81AA81B981CE0FD11D0FB6F89497
S1112B90DEBF0FBECDBFED010895F894FFCF58
S1132B9E01FF01FF2020202000253032643A253029
S1132BAE32642D2D253032643A25303264003C4F88
S1132BBE4E3E003C4F463E00504F44455341564115
S1132BCE4E4A4520534154410020205550414C4912
S1132BDE2D2D554741534920200020204A45444E6F
S1132BEE4F4B5241544E4F3A202000253564560027
S1132BFE6B5720006B576800253032643A2530320B
S1132C0E643A25303264002534642020000A004AD8
S1132C1E45444E4F4B5241544E4F0000000000505D
S1132C2E4F4445534920504552494F4420200050AB
S1132C3E4F44455349205341542020202020004224
S1132C4E524F4A494C4F20202020202020200000A3
S9030000FC
